{
  "fileName": "Counter.sol",
  "contractName": "Counter",
  "source": "pragma experimental ABIEncoderV2;\n\ncontract Counter {\n    mapping(address => mapping(address => string)) PatientToDoctor;\n    mapping(address => address[]) PatientToDoctorPending;\n\n    function Set(address doctorAddress, string memory token)\n        public\n        returns (bool)\n    {\n        PatientToDoctor[msg.sender][doctorAddress] = token;\n        DeletePending(msg.sender, doctorAddress);\n        return true;\n    }\n\n    function Get(address patientAddress, address doctorAddress)\n        external\n        view\n        returns (string memory)\n    {\n        return PatientToDoctor[patientAddress][doctorAddress];\n    }\n\n    function SetPending(address patientAddress, address doctorAddress) public returns (bool) {\n        for (\n            uint256 i = 0;\n            i < PatientToDoctorPending[patientAddress].length;\n            i++\n        ) {\n            if (PatientToDoctorPending[patientAddress][i] == doctorAddress) {\n                return false;\n            }\n        }\n        PatientToDoctorPending[patientAddress].push(doctorAddress);\n        return true;\n    }\n\n    function GetAllPending(address patientAddress)\n        public\n        view\n        returns (address[] memory)\n    {\n        return PatientToDoctorPending[patientAddress];\n    }\n\n    function DeleteAllPending(address patientAddress) public returns (bool) {\n        delete PatientToDoctorPending[patientAddress];\n        return true;\n    }\n\n    function DeletePending(address patientAddress, address doctorAddress)\n        public\n        returns (bool)\n    {\n        for (\n            uint256 i = 0;\n            i < PatientToDoctorPending[patientAddress].length;\n            i++\n        ) {\n            if (PatientToDoctorPending[patientAddress][i] == doctorAddress) {\n                //TODO faut supprimer le stockage aussi, delete attribue 0, stockage persiste\n                delete PatientToDoctorPending[patientAddress][i];\n            }\n        }\n        return true;\n    }\n}\n\n//local test wallet: 0x90F8bf6A479f320ead074411a4B0e7944Ea8c9C1\n",
  "sourcePath": "contracts/Counter.sol",
  "abi": [
    {
      "constant": false,
      "inputs": [
        {
          "internalType": "address",
          "name": "patientAddress",
          "type": "address"
        }
      ],
      "name": "DeleteAllPending",
      "outputs": [
        {
          "internalType": "bool",
          "name": "",
          "type": "bool"
        }
      ],
      "payable": false,
      "stateMutability": "nonpayable",
      "type": "function"
    },
    {
      "constant": false,
      "inputs": [
        {
          "internalType": "address",
          "name": "patientAddress",
          "type": "address"
        },
        {
          "internalType": "address",
          "name": "doctorAddress",
          "type": "address"
        }
      ],
      "name": "DeletePending",
      "outputs": [
        {
          "internalType": "bool",
          "name": "",
          "type": "bool"
        }
      ],
      "payable": false,
      "stateMutability": "nonpayable",
      "type": "function"
    },
    {
      "constant": true,
      "inputs": [
        {
          "internalType": "address",
          "name": "patientAddress",
          "type": "address"
        },
        {
          "internalType": "address",
          "name": "doctorAddress",
          "type": "address"
        }
      ],
      "name": "Get",
      "outputs": [
        {
          "internalType": "string",
          "name": "",
          "type": "string"
        }
      ],
      "payable": false,
      "stateMutability": "view",
      "type": "function"
    },
    {
      "constant": true,
      "inputs": [
        {
          "internalType": "address",
          "name": "patientAddress",
          "type": "address"
        }
      ],
      "name": "GetAllPending",
      "outputs": [
        {
          "internalType": "address[]",
          "name": "",
          "type": "address[]"
        }
      ],
      "payable": false,
      "stateMutability": "view",
      "type": "function"
    },
    {
      "constant": false,
      "inputs": [
        {
          "internalType": "address",
          "name": "doctorAddress",
          "type": "address"
        },
        {
          "internalType": "string",
          "name": "token",
          "type": "string"
        }
      ],
      "name": "Set",
      "outputs": [
        {
          "internalType": "bool",
          "name": "",
          "type": "bool"
        }
      ],
      "payable": false,
      "stateMutability": "nonpayable",
      "type": "function"
    },
    {
      "constant": false,
      "inputs": [
        {
          "internalType": "address",
          "name": "patientAddress",
          "type": "address"
        },
        {
          "internalType": "address",
          "name": "doctorAddress",
          "type": "address"
        }
      ],
      "name": "SetPending",
      "outputs": [
        {
          "internalType": "bool",
          "name": "",
          "type": "bool"
        }
      ],
      "payable": false,
      "stateMutability": "nonpayable",
      "type": "function"
    }
  ],
  "bytecode": "0x608060405234801561001057600080fd5b50610c66806100206000396000f3fe608060405234801561001057600080fd5b50600436106100625760003560e01c806336fa752a14610067578063bee3fdc614610097578063de696604146100c7578063eac09c05146100f7578063f0b09cca14610127578063f7abf59114610157575b600080fd5b610081600480360361007c91908101906108e8565b610187565b60405161008e9190610a90565b60405180910390f35b6100b160048036036100ac9190810190610911565b6101dd565b6040516100be9190610a90565b60405180910390f35b6100e160048036036100dc919081019061094d565b61039d565b6040516100ee9190610a90565b60405180910390f35b610111600480360361010c91908101906108e8565b610444565b60405161011e9190610a6e565b60405180910390f35b610141600480360361013c9190810190610911565b610511565b60405161014e9190610aab565b60405180910390f35b610171600480360361016c9190810190610911565b61062f565b60405161017e9190610a90565b60405180910390f35b6000600160008373ffffffffffffffffffffffffffffffffffffffff1673ffffffffffffffffffffffffffffffffffffffff16815260200190815260200160002060006101d491906107b9565b60019050919050565b600080600090505b600160008573ffffffffffffffffffffffffffffffffffffffff1673ffffffffffffffffffffffffffffffffffffffff168152602001908152602001600020805490508110156102ee578273ffffffffffffffffffffffffffffffffffffffff16600160008673ffffffffffffffffffffffffffffffffffffffff1673ffffffffffffffffffffffffffffffffffffffff168152602001908152602001600020828154811061029057fe5b9060005260206000200160009054906101000a900473ffffffffffffffffffffffffffffffffffffffff1673ffffffffffffffffffffffffffffffffffffffff1614156102e1576000915050610397565b80806001019150506101e5565b50600160008473ffffffffffffffffffffffffffffffffffffffff1673ffffffffffffffffffffffffffffffffffffffff1681526020019081526020016000208290806001815401808255809150509060018203906000526020600020016000909192909190916101000a81548173ffffffffffffffffffffffffffffffffffffffff021916908373ffffffffffffffffffffffffffffffffffffffff16021790555050600190505b92915050565b6000816000803373ffffffffffffffffffffffffffffffffffffffff1673ffffffffffffffffffffffffffffffffffffffff16815260200190815260200160002060008573ffffffffffffffffffffffffffffffffffffffff1673ffffffffffffffffffffffffffffffffffffffff168152602001908152602001600020908051906020019061042e9291906107da565b50610439338461062f565b506001905092915050565b6060600160008373ffffffffffffffffffffffffffffffffffffffff1673ffffffffffffffffffffffffffffffffffffffff16815260200190815260200160002080548060200260200160405190810160405280929190818152602001828054801561050557602002820191906000526020600020905b8160009054906101000a900473ffffffffffffffffffffffffffffffffffffffff1673ffffffffffffffffffffffffffffffffffffffff16815260200190600101908083116104bb575b50505050509050919050565b60606000808473ffffffffffffffffffffffffffffffffffffffff1673ffffffffffffffffffffffffffffffffffffffff16815260200190815260200160002060008373ffffffffffffffffffffffffffffffffffffffff1673ffffffffffffffffffffffffffffffffffffffff1681526020019081526020016000208054600181600116156101000203166002900480601f0160208091040260200160405190810160405280929190818152602001828054600181600116156101000203166002900480156106225780601f106105f757610100808354040283529160200191610622565b820191906000526020600020905b81548152906001019060200180831161060557829003601f168201915b5050505050905092915050565b600080600090505b600160008573ffffffffffffffffffffffffffffffffffffffff1673ffffffffffffffffffffffffffffffffffffffff168152602001908152602001600020805490508110156107ae578273ffffffffffffffffffffffffffffffffffffffff16600160008673ffffffffffffffffffffffffffffffffffffffff1673ffffffffffffffffffffffffffffffffffffffff16815260200190815260200160002082815481106106e257fe5b9060005260206000200160009054906101000a900473ffffffffffffffffffffffffffffffffffffffff1673ffffffffffffffffffffffffffffffffffffffff1614156107a157600160008573ffffffffffffffffffffffffffffffffffffffff1673ffffffffffffffffffffffffffffffffffffffff168152602001908152602001600020818154811061077357fe5b9060005260206000200160006101000a81549073ffffffffffffffffffffffffffffffffffffffff02191690555b8080600101915050610637565b506001905092915050565b50805460008255906000526020600020908101906107d7919061085a565b50565b828054600181600116156101000203166002900490600052602060002090601f016020900481019282601f1061081b57805160ff1916838001178555610849565b82800160010185558215610849579182015b8281111561084857825182559160200191906001019061082d565b5b509050610856919061085a565b5090565b61087c91905b80821115610878576000816000905550600101610860565b5090565b90565b60008135905061088e81610c0c565b92915050565b600082601f8301126108a557600080fd5b81356108b86108b382610afa565b610acd565b915080825260208301602083018583830111156108d457600080fd5b6108df838284610bb9565b50505092915050565b6000602082840312156108fa57600080fd5b60006109088482850161087f565b91505092915050565b6000806040838503121561092457600080fd5b60006109328582860161087f565b92505060206109438582860161087f565b9150509250929050565b6000806040838503121561096057600080fd5b600061096e8582860161087f565b925050602083013567ffffffffffffffff81111561098b57600080fd5b61099785828601610894565b9150509250929050565b60006109ad83836109b9565b60208301905092915050565b6109c281610b7b565b82525050565b60006109d382610b36565b6109dd8185610b59565b93506109e883610b26565b8060005b83811015610a19578151610a0088826109a1565b9750610a0b83610b4c565b9250506001810190506109ec565b5085935050505092915050565b610a2f81610b8d565b82525050565b6000610a4082610b41565b610a4a8185610b6a565b9350610a5a818560208601610bc8565b610a6381610bfb565b840191505092915050565b60006020820190508181036000830152610a8881846109c8565b905092915050565b6000602082019050610aa56000830184610a26565b92915050565b60006020820190508181036000830152610ac58184610a35565b905092915050565b6000604051905081810181811067ffffffffffffffff82111715610af057600080fd5b8060405250919050565b600067ffffffffffffffff821115610b1157600080fd5b601f19601f8301169050602081019050919050565b6000819050602082019050919050565b600081519050919050565b600081519050919050565b6000602082019050919050565b600082825260208201905092915050565b600082825260208201905092915050565b6000610b8682610b99565b9050919050565b60008115159050919050565b600073ffffffffffffffffffffffffffffffffffffffff82169050919050565b82818337600083830152505050565b60005b83811015610be6578082015181840152602081019050610bcb565b83811115610bf5576000848401525b50505050565b6000601f19601f8301169050919050565b610c1581610b7b565b8114610c2057600080fd5b5056fea365627a7a7231582080f10564c6e008d83ddaef7c8e754bcacc658e13f19514125a8df96ea6a6764e6c6578706572696d656e74616cf564736f6c63430005110040",
  "compiler": {
    "name": "solc",
    "version": "0.5.17+commit.d19bba13.Emscripten.clang",
    "optimizer": {
      "enabled": false,
      "runs": 200
    },
    "evmVersion": "petersburg"
  }
}