{
  "fileName": "Counter.sol",
  "contractName": "Counter",
  "source": "pragma experimental ABIEncoderV2;\n\ncontract Counter {    \n    mapping (address => mapping(address => string)) PatientToDoctor;\n    mapping (address => address[]) PatientToDoctorPending;\n\n    function Set(address doctorAddress, string memory token) public returns(bool){\n        PatientToDoctor[msg.sender][doctorAddress] = token;\n        return true;\n    }\n\n    function Get(address patientAddress, address doctorAddress) external view returns(string memory){\n       return PatientToDoctor[patientAddress][doctorAddress];\n    }\n\n    function SetPending(address doctorAddress) public returns(bool){\n        PatientToDoctorPending[msg.sender].push(doctorAddress);\n        return true;\n    }\n\n    function GetAllPending(address patientAddress) public view returns(address[] memory){\n        return PatientToDoctorPending[patientAddress];\n    }\n\n    function DeleteAllPending(address patientAddress) public returns(bool){\n        delete PatientToDoctorPending[patientAddress];\n        return true;\n    }\n}\n\n//local test wallet: 0x90F8bf6A479f320ead074411a4B0e7944Ea8c9C1",
  "sourcePath": "contracts/Counter.sol",
  "abi": [
    {
      "constant": false,
      "inputs": [
        {
          "internalType": "address",
          "name": "patientAddress",
          "type": "address"
        }
      ],
      "name": "DeleteAllPending",
      "outputs": [
        {
          "internalType": "bool",
          "name": "",
          "type": "bool"
        }
      ],
      "payable": false,
      "stateMutability": "nonpayable",
      "type": "function"
    },
    {
      "constant": true,
      "inputs": [
        {
          "internalType": "address",
          "name": "patientAddress",
          "type": "address"
        },
        {
          "internalType": "address",
          "name": "doctorAddress",
          "type": "address"
        }
      ],
      "name": "Get",
      "outputs": [
        {
          "internalType": "string",
          "name": "",
          "type": "string"
        }
      ],
      "payable": false,
      "stateMutability": "view",
      "type": "function"
    },
    {
      "constant": true,
      "inputs": [
        {
          "internalType": "address",
          "name": "patientAddress",
          "type": "address"
        }
      ],
      "name": "GetAllPending",
      "outputs": [
        {
          "internalType": "address[]",
          "name": "",
          "type": "address[]"
        }
      ],
      "payable": false,
      "stateMutability": "view",
      "type": "function"
    },
    {
      "constant": false,
      "inputs": [
        {
          "internalType": "address",
          "name": "doctorAddress",
          "type": "address"
        },
        {
          "internalType": "string",
          "name": "token",
          "type": "string"
        }
      ],
      "name": "Set",
      "outputs": [
        {
          "internalType": "bool",
          "name": "",
          "type": "bool"
        }
      ],
      "payable": false,
      "stateMutability": "nonpayable",
      "type": "function"
    },
    {
      "constant": false,
      "inputs": [
        {
          "internalType": "address",
          "name": "doctorAddress",
          "type": "address"
        }
      ],
      "name": "SetPending",
      "outputs": [
        {
          "internalType": "bool",
          "name": "",
          "type": "bool"
        }
      ],
      "payable": false,
      "stateMutability": "nonpayable",
      "type": "function"
    }
  ],
  "bytecode": "0x608060405234801561001057600080fd5b50610984806100206000396000f3fe608060405234801561001057600080fd5b50600436106100575760003560e01c806336fa752a1461005c5780633a4983eb1461008c578063de696604146100bc578063eac09c05146100ec578063f0b09cca1461011c575b600080fd5b61007660048036036100719190810190610606565b61014c565b60405161008391906107ae565b60405180910390f35b6100a660048036036100a19190810190610606565b6101a2565b6040516100b391906107ae565b60405180910390f35b6100d660048036036100d1919081019061066b565b610250565b6040516100e391906107ae565b60405180910390f35b61010660048036036101019190810190610606565b6102ec565b604051610113919061078c565b60405180910390f35b6101366004803603610131919081019061062f565b6103b9565b60405161014391906107c9565b60405180910390f35b6000600160008373ffffffffffffffffffffffffffffffffffffffff1673ffffffffffffffffffffffffffffffffffffffff168152602001908152602001600020600061019991906104d7565b60019050919050565b6000600160003373ffffffffffffffffffffffffffffffffffffffff1673ffffffffffffffffffffffffffffffffffffffff1681526020019081526020016000208290806001815401808255809150509060018203906000526020600020016000909192909190916101000a81548173ffffffffffffffffffffffffffffffffffffffff021916908373ffffffffffffffffffffffffffffffffffffffff1602179055505060019050919050565b6000816000803373ffffffffffffffffffffffffffffffffffffffff1673ffffffffffffffffffffffffffffffffffffffff16815260200190815260200160002060008573ffffffffffffffffffffffffffffffffffffffff1673ffffffffffffffffffffffffffffffffffffffff16815260200190815260200160002090805190602001906102e19291906104f8565b506001905092915050565b6060600160008373ffffffffffffffffffffffffffffffffffffffff1673ffffffffffffffffffffffffffffffffffffffff1681526020019081526020016000208054806020026020016040519081016040528092919081815260200182805480156103ad57602002820191906000526020600020905b8160009054906101000a900473ffffffffffffffffffffffffffffffffffffffff1673ffffffffffffffffffffffffffffffffffffffff1681526020019060010190808311610363575b50505050509050919050565b60606000808473ffffffffffffffffffffffffffffffffffffffff1673ffffffffffffffffffffffffffffffffffffffff16815260200190815260200160002060008373ffffffffffffffffffffffffffffffffffffffff1673ffffffffffffffffffffffffffffffffffffffff1681526020019081526020016000208054600181600116156101000203166002900480601f0160208091040260200160405190810160405280929190818152602001828054600181600116156101000203166002900480156104ca5780601f1061049f576101008083540402835291602001916104ca565b820191906000526020600020905b8154815290600101906020018083116104ad57829003601f168201915b5050505050905092915050565b50805460008255906000526020600020908101906104f59190610578565b50565b828054600181600116156101000203166002900490600052602060002090601f016020900481019282601f1061053957805160ff1916838001178555610567565b82800160010185558215610567579182015b8281111561056657825182559160200191906001019061054b565b5b5090506105749190610578565b5090565b61059a91905b8082111561059657600081600090555060010161057e565b5090565b90565b6000813590506105ac8161092a565b92915050565b600082601f8301126105c357600080fd5b81356105d66105d182610818565b6107eb565b915080825260208301602083018583830111156105f257600080fd5b6105fd8382846108d7565b50505092915050565b60006020828403121561061857600080fd5b60006106268482850161059d565b91505092915050565b6000806040838503121561064257600080fd5b60006106508582860161059d565b92505060206106618582860161059d565b9150509250929050565b6000806040838503121561067e57600080fd5b600061068c8582860161059d565b925050602083013567ffffffffffffffff8111156106a957600080fd5b6106b5858286016105b2565b9150509250929050565b60006106cb83836106d7565b60208301905092915050565b6106e081610899565b82525050565b60006106f182610854565b6106fb8185610877565b935061070683610844565b8060005b8381101561073757815161071e88826106bf565b97506107298361086a565b92505060018101905061070a565b5085935050505092915050565b61074d816108ab565b82525050565b600061075e8261085f565b6107688185610888565b93506107788185602086016108e6565b61078181610919565b840191505092915050565b600060208201905081810360008301526107a681846106e6565b905092915050565b60006020820190506107c36000830184610744565b92915050565b600060208201905081810360008301526107e38184610753565b905092915050565b6000604051905081810181811067ffffffffffffffff8211171561080e57600080fd5b8060405250919050565b600067ffffffffffffffff82111561082f57600080fd5b601f19601f8301169050602081019050919050565b6000819050602082019050919050565b600081519050919050565b600081519050919050565b6000602082019050919050565b600082825260208201905092915050565b600082825260208201905092915050565b60006108a4826108b7565b9050919050565b60008115159050919050565b600073ffffffffffffffffffffffffffffffffffffffff82169050919050565b82818337600083830152505050565b60005b838110156109045780820151818401526020810190506108e9565b83811115610913576000848401525b50505050565b6000601f19601f8301169050919050565b61093381610899565b811461093e57600080fd5b5056fea365627a7a723158202114e489c055b45c84ee71a520872ac65632b8665dcec6d2fa9676de4f04d8426c6578706572696d656e74616cf564736f6c63430005110040",
  "compiler": {
    "name": "solc",
    "version": "0.5.17+commit.d19bba13.Emscripten.clang",
    "optimizer": {
      "enabled": false,
      "runs": 200
    },
    "evmVersion": "petersburg"
  }
}