{
  "fileName": "Counter.sol",
  "contractName": "Counter",
  "source": "pragma experimental ABIEncoderV2;\n\ncontract Counter {    \n    mapping (address => mapping(address => string)) PatientToDoctor;\n\n    function Set(address doctorAddress, string memory token) public returns(bool){\n        PatientToDoctor[msg.sender][doctorAddress] = token;\n        return true;\n    }\n\n    function Get(address patientAddress, address doctorAddress) external view returns(string memory){\n       return PatientToDoctor[patientAddress][doctorAddress];\n    }\n}\n\n//0x90F8bf6A479f320ead074411a4B0e7944Ea8c9C1",
  "sourcePath": "contracts/Counter.sol",
  "abi": [
    {
      "constant": true,
      "inputs": [
        {
          "internalType": "address",
          "name": "patientAddress",
          "type": "address"
        },
        {
          "internalType": "address",
          "name": "doctorAddress",
          "type": "address"
        }
      ],
      "name": "Get",
      "outputs": [
        {
          "internalType": "string",
          "name": "",
          "type": "string"
        }
      ],
      "payable": false,
      "stateMutability": "view",
      "type": "function"
    },
    {
      "constant": false,
      "inputs": [
        {
          "internalType": "address",
          "name": "doctorAddress",
          "type": "address"
        },
        {
          "internalType": "string",
          "name": "token",
          "type": "string"
        }
      ],
      "name": "Set",
      "outputs": [
        {
          "internalType": "bool",
          "name": "",
          "type": "bool"
        }
      ],
      "payable": false,
      "stateMutability": "nonpayable",
      "type": "function"
    }
  ],
  "bytecode": "0x608060405234801561001057600080fd5b506105d8806100206000396000f3fe608060405234801561001057600080fd5b50600436106100365760003560e01c8063de6966041461003b578063f0b09cca1461006b575b600080fd5b6100556004803603610050919081019061039f565b61009b565b604051610062919061043b565b60405180910390f35b61008560048036036100809190810190610363565b610137565b6040516100929190610456565b60405180910390f35b6000816000803373ffffffffffffffffffffffffffffffffffffffff1673ffffffffffffffffffffffffffffffffffffffff16815260200190815260200160002060008573ffffffffffffffffffffffffffffffffffffffff1673ffffffffffffffffffffffffffffffffffffffff168152602001908152602001600020908051906020019061012c929190610255565b506001905092915050565b60606000808473ffffffffffffffffffffffffffffffffffffffff1673ffffffffffffffffffffffffffffffffffffffff16815260200190815260200160002060008373ffffffffffffffffffffffffffffffffffffffff1673ffffffffffffffffffffffffffffffffffffffff1681526020019081526020016000208054600181600116156101000203166002900480601f0160208091040260200160405190810160405280929190818152602001828054600181600116156101000203166002900480156102485780601f1061021d57610100808354040283529160200191610248565b820191906000526020600020905b81548152906001019060200180831161022b57829003601f168201915b5050505050905092915050565b828054600181600116156101000203166002900490600052602060002090601f016020900481019282601f1061029657805160ff19168380011785556102c4565b828001600101855582156102c4579182015b828111156102c35782518255916020019190600101906102a8565b5b5090506102d191906102d5565b5090565b6102f791905b808211156102f35760008160009055506001016102db565b5090565b90565b6000813590506103098161057e565b92915050565b600082601f83011261032057600080fd5b813561033361032e826104a5565b610478565b9150808252602083016020830185838301111561034f57600080fd5b61035a83828461052b565b50505092915050565b6000806040838503121561037657600080fd5b6000610384858286016102fa565b9250506020610395858286016102fa565b9150509250929050565b600080604083850312156103b257600080fd5b60006103c0858286016102fa565b925050602083013567ffffffffffffffff8111156103dd57600080fd5b6103e98582860161030f565b9150509250929050565b6103fc816104ff565b82525050565b600061040d826104d1565b61041781856104dc565b935061042781856020860161053a565b6104308161056d565b840191505092915050565b600060208201905061045060008301846103f3565b92915050565b600060208201905081810360008301526104708184610402565b905092915050565b6000604051905081810181811067ffffffffffffffff8211171561049b57600080fd5b8060405250919050565b600067ffffffffffffffff8211156104bc57600080fd5b601f19601f8301169050602081019050919050565b600081519050919050565b600082825260208201905092915050565b60006104f88261050b565b9050919050565b60008115159050919050565b600073ffffffffffffffffffffffffffffffffffffffff82169050919050565b82818337600083830152505050565b60005b8381101561055857808201518184015260208101905061053d565b83811115610567576000848401525b50505050565b6000601f19601f8301169050919050565b610587816104ed565b811461059257600080fd5b5056fea365627a7a72315820bd907d63744624372ca9de9cae412ee62e377f72a81efc72642915e5a5f7a9ad6c6578706572696d656e74616cf564736f6c63430005110040",
  "compiler": {
    "name": "solc",
    "version": "0.5.17+commit.d19bba13.Emscripten.clang",
    "optimizer": {
      "enabled": false,
      "runs": 200
    },
    "evmVersion": "petersburg"
  }
}