{
  "fileName": "MedicalV1.sol",
  "contractName": "MedicalV1",
  "source": "pragma experimental ABIEncoderV2;\n\ncontract MedicalV1 {\n    mapping(address => string) PatientAddressToStorj;\n    mapping(address => mapping(string => string)) PatientToDoctor;\n    mapping(address => string[]) PatientToDoctorPending;\n\n    function SetPatientAddressToStorj(\n        address PatientAddress,\n        string memory encryptedStorjToken\n    ) public returns (string memory) {\n        PatientAddressToStorj[PatientAddress] = encryptedStorjToken;\n        return PatientAddressToStorj[PatientAddress];\n    }\n\n    function GetPatientAddressToStorj(address PatientAddress)\n        public\n        view\n        returns (string memory)\n    {\n        return PatientAddressToStorj[PatientAddress];\n    }\n\n    function Set(string memory doctorPublicKey, string memory token)\n        public\n        returns (bool)\n    {\n        PatientToDoctor[msg.sender][doctorPublicKey] = token;\n        DeletePending(msg.sender, doctorPublicKey);\n        return true;\n    }\n\n    function Get(address patientAddress, string memory doctorPublicKey)\n        public\n        view\n        returns (string memory)\n    {\n        return PatientToDoctor[patientAddress][doctorPublicKey];\n    }\n\n    function SetPending(address patientAddress, string memory doctorPublicKey)\n        public\n        returns (bool)\n    {\n        for (\n            uint256 i = 0;\n            i < PatientToDoctorPending[patientAddress].length;\n            i++\n        ) {\n            if (\n                keccak256(\n                    abi.encodePacked(PatientToDoctorPending[patientAddress][i])\n                ) == keccak256(abi.encodePacked(doctorPublicKey))\n            ) {\n                return false;\n            }\n        }\n        PatientToDoctorPending[patientAddress].push(doctorPublicKey);\n        return true;\n    }\n\n    function GetAllPending(address patientAddress)\n        public\n        view\n        returns (string[] memory)\n    {\n        return PatientToDoctorPending[patientAddress];\n    }\n\n    function DeleteAllPending(address patientAddress) public returns (bool) {\n        delete PatientToDoctorPending[patientAddress];\n        return true;\n    }\n\n    function DeletePending(\n        address patientAddress,\n        string memory doctorPublicKey\n    ) public returns (bool) {\n        for (\n            uint256 i = 0;\n            i < PatientToDoctorPending[patientAddress].length;\n            i++\n        ) {\n            if (\n                keccak256(\n                    abi.encodePacked(PatientToDoctorPending[patientAddress][i])\n                ) == keccak256(abi.encodePacked(doctorPublicKey))\n            ) {\n                //TODO faut supprimer le stockage aussi, delete attribue 0, stockage persiste\n                delete PatientToDoctorPending[patientAddress][i];\n            }\n        }\n        return true;\n    }\n}\n\n//local test wallet: 0x90F8bf6A479f320ead074411a4B0e7944Ea8c9C1\n",
  "sourcePath": "contracts/MedicalV1.sol",
  "abi": [
    {
      "constant": false,
      "inputs": [
        {
          "internalType": "address",
          "name": "patientAddress",
          "type": "address"
        }
      ],
      "name": "DeleteAllPending",
      "outputs": [
        {
          "internalType": "bool",
          "name": "",
          "type": "bool"
        }
      ],
      "payable": false,
      "stateMutability": "nonpayable",
      "type": "function"
    },
    {
      "constant": false,
      "inputs": [
        {
          "internalType": "address",
          "name": "patientAddress",
          "type": "address"
        },
        {
          "internalType": "string",
          "name": "doctorPublicKey",
          "type": "string"
        }
      ],
      "name": "DeletePending",
      "outputs": [
        {
          "internalType": "bool",
          "name": "",
          "type": "bool"
        }
      ],
      "payable": false,
      "stateMutability": "nonpayable",
      "type": "function"
    },
    {
      "constant": true,
      "inputs": [
        {
          "internalType": "address",
          "name": "patientAddress",
          "type": "address"
        },
        {
          "internalType": "string",
          "name": "doctorPublicKey",
          "type": "string"
        }
      ],
      "name": "Get",
      "outputs": [
        {
          "internalType": "string",
          "name": "",
          "type": "string"
        }
      ],
      "payable": false,
      "stateMutability": "view",
      "type": "function"
    },
    {
      "constant": true,
      "inputs": [
        {
          "internalType": "address",
          "name": "patientAddress",
          "type": "address"
        }
      ],
      "name": "GetAllPending",
      "outputs": [
        {
          "internalType": "string[]",
          "name": "",
          "type": "string[]"
        }
      ],
      "payable": false,
      "stateMutability": "view",
      "type": "function"
    },
    {
      "constant": true,
      "inputs": [
        {
          "internalType": "address",
          "name": "PatientAddress",
          "type": "address"
        }
      ],
      "name": "GetPatientAddressToStorj",
      "outputs": [
        {
          "internalType": "string",
          "name": "",
          "type": "string"
        }
      ],
      "payable": false,
      "stateMutability": "view",
      "type": "function"
    },
    {
      "constant": false,
      "inputs": [
        {
          "internalType": "string",
          "name": "doctorPublicKey",
          "type": "string"
        },
        {
          "internalType": "string",
          "name": "token",
          "type": "string"
        }
      ],
      "name": "Set",
      "outputs": [
        {
          "internalType": "bool",
          "name": "",
          "type": "bool"
        }
      ],
      "payable": false,
      "stateMutability": "nonpayable",
      "type": "function"
    },
    {
      "constant": false,
      "inputs": [
        {
          "internalType": "address",
          "name": "PatientAddress",
          "type": "address"
        },
        {
          "internalType": "string",
          "name": "encryptedStorjToken",
          "type": "string"
        }
      ],
      "name": "SetPatientAddressToStorj",
      "outputs": [
        {
          "internalType": "string",
          "name": "",
          "type": "string"
        }
      ],
      "payable": false,
      "stateMutability": "nonpayable",
      "type": "function"
    },
    {
      "constant": false,
      "inputs": [
        {
          "internalType": "address",
          "name": "patientAddress",
          "type": "address"
        },
        {
          "internalType": "string",
          "name": "doctorPublicKey",
          "type": "string"
        }
      ],
      "name": "SetPending",
      "outputs": [
        {
          "internalType": "bool",
          "name": "",
          "type": "bool"
        }
      ],
      "payable": false,
      "stateMutability": "nonpayable",
      "type": "function"
    }
  ],
  "bytecode": "0x608060405234801561001057600080fd5b506110e5806100206000396000f3fe608060405234801561001057600080fd5b50600436106100885760003560e01c8063d8c157211161005b578063d8c157211461014d578063ddc5a3951461017d578063eac09c05146101ad578063fc637d97146101dd57610088565b80632e532bb41461008d57806336fa752a146100bd57806384c219cf146100ed578063bb7911e61461011d575b600080fd5b6100a760048036036100a29190810190610bfa565b61020d565b6040516100b49190610ed3565b60405180910390f35b6100d760048036036100d29190810190610bd1565b6103a5565b6040516100e49190610ed3565b60405180910390f35b61010760048036036101029190810190610bd1565b6103fb565b6040516101149190610eee565b60405180910390f35b61013760048036036101329190810190610bfa565b6104db565b6040516101449190610eee565b60405180910390f35b61016760048036036101629190810190610bfa565b6105d9565b6040516101749190610eee565b60405180910390f35b61019760048036036101929190810190610c4e565b61070d565b6040516101a49190610ed3565b60405180910390f35b6101c760048036036101c29190810190610bd1565b610794565b6040516101d49190610eb1565b60405180910390f35b6101f760048036036101f29190810190610bfa565b6108bc565b6040516102049190610ed3565b60405180910390f35b600080600090505b600260008573ffffffffffffffffffffffffffffffffffffffff1673ffffffffffffffffffffffffffffffffffffffff1681526020019081526020016000208054905081101561031d57826040516020016102709190610e83565b60405160208183030381529060405280519060200120600260008673ffffffffffffffffffffffffffffffffffffffff1673ffffffffffffffffffffffffffffffffffffffff16815260200190815260200160002082815481106102d057fe5b906000526020600020016040516020016102ea9190610e9a565b60405160208183030381529060405280519060200120141561031057600091505061039f565b8080600101915050610215565b50600260008473ffffffffffffffffffffffffffffffffffffffff1673ffffffffffffffffffffffffffffffffffffffff168152602001908152602001600020829080600181540180825580915050906001820390600052602060002001600090919290919091509080519060200190610398929190610a2e565b5050600190505b92915050565b6000600260008373ffffffffffffffffffffffffffffffffffffffff1673ffffffffffffffffffffffffffffffffffffffff16815260200190815260200160002060006103f29190610aae565b60019050919050565b60606000808373ffffffffffffffffffffffffffffffffffffffff1673ffffffffffffffffffffffffffffffffffffffff1681526020019081526020016000208054600181600116156101000203166002900480601f0160208091040260200160405190810160405280929190818152602001828054600181600116156101000203166002900480156104cf5780601f106104a4576101008083540402835291602001916104cf565b820191906000526020600020905b8154815290600101906020018083116104b257829003601f168201915b50505050509050919050565b6060600160008473ffffffffffffffffffffffffffffffffffffffff1673ffffffffffffffffffffffffffffffffffffffff1681526020019081526020016000208260405161052a9190610e83565b90815260200160405180910390208054600181600116156101000203166002900480601f0160208091040260200160405190810160405280929190818152602001828054600181600116156101000203166002900480156105cc5780601f106105a1576101008083540402835291602001916105cc565b820191906000526020600020905b8154815290600101906020018083116105af57829003601f168201915b5050505050905092915050565b6060816000808573ffffffffffffffffffffffffffffffffffffffff1673ffffffffffffffffffffffffffffffffffffffff168152602001908152602001600020908051906020019061062d929190610a2e565b506000808473ffffffffffffffffffffffffffffffffffffffff1673ffffffffffffffffffffffffffffffffffffffff1681526020019081526020016000208054600181600116156101000203166002900480601f0160208091040260200160405190810160405280929190818152602001828054600181600116156101000203166002900480156107005780601f106106d557610100808354040283529160200191610700565b820191906000526020600020905b8154815290600101906020018083116106e357829003601f168201915b5050505050905092915050565b600081600160003373ffffffffffffffffffffffffffffffffffffffff1673ffffffffffffffffffffffffffffffffffffffff1681526020019081526020016000208460405161075d9190610e83565b9081526020016040518091039020908051906020019061077e929190610a2e565b5061078933846108bc565b506001905092915050565b6060600260008373ffffffffffffffffffffffffffffffffffffffff1673ffffffffffffffffffffffffffffffffffffffff168152602001908152602001600020805480602002602001604051908101604052809291908181526020016000905b828210156108b1578382906000526020600020018054600181600116156101000203166002900480601f01602080910402602001604051908101604052809291908181526020018280546001816001161561010002031660029004801561089d5780601f106108725761010080835404028352916020019161089d565b820191906000526020600020905b81548152906001019060200180831161088057829003601f168201915b5050505050815260200190600101906107f5565b505050509050919050565b600080600090505b600260008573ffffffffffffffffffffffffffffffffffffffff1673ffffffffffffffffffffffffffffffffffffffff16815260200190815260200160002080549050811015610a23578260405160200161091f9190610e83565b60405160208183030381529060405280519060200120600260008673ffffffffffffffffffffffffffffffffffffffff1673ffffffffffffffffffffffffffffffffffffffff168152602001908152602001600020828154811061097f57fe5b906000526020600020016040516020016109999190610e9a565b604051602081830303815290604052805190602001201415610a1657600260008573ffffffffffffffffffffffffffffffffffffffff1673ffffffffffffffffffffffffffffffffffffffff16815260200190815260200160002081815481106109ff57fe5b906000526020600020016000610a159190610acf565b5b80806001019150506108c4565b506001905092915050565b828054600181600116156101000203166002900490600052602060002090601f016020900481019282601f10610a6f57805160ff1916838001178555610a9d565b82800160010185558215610a9d579182015b82811115610a9c578251825591602001919060010190610a81565b5b509050610aaa9190610b17565b5090565b5080546000825590600052602060002090810190610acc9190610b3c565b50565b50805460018160011615610100020316600290046000825580601f10610af55750610b14565b601f016020900490600052602060002090810190610b139190610b17565b5b50565b610b3991905b80821115610b35576000816000905550600101610b1d565b5090565b90565b610b6591905b80821115610b615760008181610b589190610acf565b50600101610b42565b5090565b90565b600081359050610b778161108b565b92915050565b600082601f830112610b8e57600080fd5b8135610ba1610b9c82610f3d565b610f10565b91508082526020830160208301858383011115610bbd57600080fd5b610bc8838284611038565b50505092915050565b600060208284031215610be357600080fd5b6000610bf184828501610b68565b91505092915050565b60008060408385031215610c0d57600080fd5b6000610c1b85828601610b68565b925050602083013567ffffffffffffffff811115610c3857600080fd5b610c4485828601610b7d565b9150509250929050565b60008060408385031215610c6157600080fd5b600083013567ffffffffffffffff811115610c7b57600080fd5b610c8785828601610b7d565b925050602083013567ffffffffffffffff811115610ca457600080fd5b610cb085828601610b7d565b9150509250929050565b6000610cc68383610dbc565b905092915050565b6000610cd982610f8e565b610ce38185610fbc565b935083602082028501610cf585610f69565b8060005b85811015610d315784840389528151610d128582610cba565b9450610d1d83610faf565b925060208a01995050600181019050610cf9565b50829750879550505050505092915050565b610d4c8161100c565b82525050565b6000610d5d82610fa4565b610d678185610fde565b9350610d77818560208601611047565b610d808161107a565b840191505092915050565b6000610d9682610fa4565b610da08185610fef565b9350610db0818560208601611047565b80840191505092915050565b6000610dc782610f99565b610dd18185610fcd565b9350610de1818560208601611047565b610dea8161107a565b840191505092915050565b600081546001811660008114610e125760018114610e3757610e7b565b607f6002830416610e238187610fef565b955060ff1983168652808601935050610e7b565b60028204610e458187610fef565b9550610e5085610f79565b60005b82811015610e7257815481890152600182019150602081019050610e53565b82880195505050505b505092915050565b6000610e8f8284610d8b565b915081905092915050565b6000610ea68284610df5565b915081905092915050565b60006020820190508181036000830152610ecb8184610cce565b905092915050565b6000602082019050610ee86000830184610d43565b92915050565b60006020820190508181036000830152610f088184610d52565b905092915050565b6000604051905081810181811067ffffffffffffffff82111715610f3357600080fd5b8060405250919050565b600067ffffffffffffffff821115610f5457600080fd5b601f19601f8301169050602081019050919050565b6000819050602082019050919050565b60008190508160005260206000209050919050565b600081519050919050565b600081519050919050565b600081519050919050565b6000602082019050919050565b600082825260208201905092915050565b600082825260208201905092915050565b600082825260208201905092915050565b600081905092915050565b600061100582611018565b9050919050565b60008115159050919050565b600073ffffffffffffffffffffffffffffffffffffffff82169050919050565b82818337600083830152505050565b60005b8381101561106557808201518184015260208101905061104a565b83811115611074576000848401525b50505050565b6000601f19601f8301169050919050565b61109481610ffa565b811461109f57600080fd5b5056fea365627a7a72315820c2edd40b47f8809b3bd04f6cc3e026807b4e4fe0c93f1ec2d9c50835c623d7e46c6578706572696d656e74616cf564736f6c63430005110040",
  "compiler": {
    "name": "solc",
    "version": "0.5.17+commit.d19bba13.Emscripten.clang",
    "optimizer": {
      "enabled": false,
      "runs": 200
    },
    "evmVersion": "petersburg"
  }
}