{
  "fileName": "MedicalV102.sol",
  "contractName": "MedicalV102",
  "source": "pragma experimental ABIEncoderV2;\n\ncontract MedicalV102 {\n    mapping(address => string) PatientAddressToStorj;\n    mapping(address => mapping(string => string)) PatientToDoctorToToken;\n    mapping(address => string[]) PatientToDoctorsPending;\n    mapping(string => address[]) DoctorToPatientsPending;\n    mapping(address => string[]) PatientToDoctors;\n    mapping(string => address[]) DoctorToPatients;\n    mapping(address => mapping(string => string)) DoctorToStorj;\n\n    function SetDoctorToStorj(\n        address doctorAddress,\n        string memory storjFile,\n        string memory storjToken\n    ) public returns (string memory) {\n        if (doctorAddress != msg.sender) {\n            return \"sender not authorized\";\n        }\n        DoctorToStorj[doctorAddress][storjFile] = storjToken;\n        return DoctorToStorj[doctorAddress][storjFile];\n    }\n\n    function GetDoctorToStorj(\n        address doctorAddress,\n        string memory storjFile\n    ) public view returns (string memory) {\n        return DoctorToStorj[doctorAddress][storjFile];\n    }\n\n    function SetPatientAddressToStorj(\n        address PatientAddress,\n        string memory encryptedStorjToken\n    ) public returns (string memory) {\n        PatientAddressToStorj[PatientAddress] = encryptedStorjToken;\n        return PatientAddressToStorj[PatientAddress];\n    }\n\n    function GetPatientsForDoctor(string memory doctorPublicKey)\n        public\n        view\n        returns (address[] memory)\n    {\n        return DoctorToPatients[doctorPublicKey];\n    }\n\n    function GetDoctorsForPatient(address patientAddress)\n        public\n        view\n        returns (string[] memory)\n    {\n        return PatientToDoctors[patientAddress];\n    }\n\n    function GetPatientAddressToStorj(address PatientAddress)\n        public\n        view\n        returns (string memory)\n    {\n        return PatientAddressToStorj[PatientAddress];\n    }\n\n    function Set(string memory doctorPublicKey, string memory token)\n        public\n        returns (bool)\n    {\n        bool doctorExists = false;\n        for (uint256 i = 0; i < PatientToDoctors[msg.sender].length; i++) {\n            if (\n                keccak256(abi.encodePacked(PatientToDoctors[msg.sender][i])) ==\n                keccak256(abi.encodePacked(doctorPublicKey))\n            ) {\n                doctorExists = true;\n                break;\n            }\n        }\n        if (doctorExists == false) {\n            PatientToDoctors[msg.sender].push(doctorPublicKey);\n            DoctorToPatients[doctorPublicKey].push(msg.sender);\n        }\n        PatientToDoctorToToken[msg.sender][doctorPublicKey] = token;\n        DeletePending(msg.sender, doctorPublicKey);\n        return true;\n    }\n\n    function Get(address patientAddress, string memory doctorPublicKey)\n        public\n        view\n        returns (string memory)\n    {\n        return PatientToDoctorToToken[patientAddress][doctorPublicKey];\n    }\n\n    function SetPending(address patientAddress, string memory doctorPublicKey)\n        public\n        returns (bool)\n    {\n        //faudra vérifier le sender, comparaison ci-dessous marche pas...\n        //if(bytes20(msg.sender) != bytes20(uint160 (uint256 (keccak256 (abi.encodePacked(doctorPublicKey)))))){\n        //  return false;\n        //}\n        for (\n            uint256 i = 0;\n            i < PatientToDoctorsPending[patientAddress].length;\n            i++\n        ) {\n            if (\n                keccak256(\n                    abi.encodePacked(PatientToDoctorsPending[patientAddress][i])\n                ) == keccak256(abi.encodePacked(doctorPublicKey))\n            ) {\n                return false;\n            }\n        }\n        PatientToDoctorsPending[patientAddress].push(doctorPublicKey);\n        DoctorToPatientsPending[doctorPublicKey].push(patientAddress);\n        return true;\n    }\n\n    function GetPendingDoctorsForPatient(address patientAddress)\n        public\n        view\n        returns (string[] memory)\n    {\n        return PatientToDoctorsPending[patientAddress];\n    }\n\n    function GetPendingPatientsForDoctor(string memory doctorPublicKey)\n        public\n        view\n        returns (address[] memory)\n    {\n        return DoctorToPatientsPending[doctorPublicKey];\n    }\n\n    function DeletePending(\n        address patientAddress,\n        string memory doctorPublicKey\n    ) private returns (bool) {\n        for (\n            uint256 i = 0;\n            i < PatientToDoctorsPending[patientAddress].length;\n            i++\n        ) {\n            if (\n                keccak256(\n                    abi.encodePacked(PatientToDoctorsPending[patientAddress][i])\n                ) == keccak256(abi.encodePacked(doctorPublicKey))\n            ) {\n                //TODO faut supprimer le stockage aussi, delete attribue 0, stockage persiste\n                delete PatientToDoctorsPending[patientAddress][i];\n            }\n        }\n        for (\n            uint256 i = 0;\n            i < DoctorToPatientsPending[doctorPublicKey].length;\n            i++\n        ) {\n            if (\n                keccak256(\n                    abi.encodePacked(\n                        DoctorToPatientsPending[doctorPublicKey][i]\n                    )\n                ) == keccak256(abi.encodePacked(patientAddress))\n            ) {\n                //TODO faut supprimer le stockage aussi, delete attribue 0, stockage persiste\n                delete DoctorToPatientsPending[doctorPublicKey][i];\n            }\n        }\n        return true;\n    }\n}\n\n//local test wallet: 0x90F8bf6A479f320ead074411a4B0e7944Ea8c9C1\n",
  "sourcePath": "contracts/MedicalV102.sol",
  "abi": [
    {
      "constant": true,
      "inputs": [
        {
          "internalType": "address",
          "name": "patientAddress",
          "type": "address"
        },
        {
          "internalType": "string",
          "name": "doctorPublicKey",
          "type": "string"
        }
      ],
      "name": "Get",
      "outputs": [
        {
          "internalType": "string",
          "name": "",
          "type": "string"
        }
      ],
      "payable": false,
      "stateMutability": "view",
      "type": "function"
    },
    {
      "constant": true,
      "inputs": [
        {
          "internalType": "address",
          "name": "doctorAddress",
          "type": "address"
        },
        {
          "internalType": "string",
          "name": "storjFile",
          "type": "string"
        }
      ],
      "name": "GetDoctorToStorj",
      "outputs": [
        {
          "internalType": "string",
          "name": "",
          "type": "string"
        }
      ],
      "payable": false,
      "stateMutability": "view",
      "type": "function"
    },
    {
      "constant": true,
      "inputs": [
        {
          "internalType": "address",
          "name": "patientAddress",
          "type": "address"
        }
      ],
      "name": "GetDoctorsForPatient",
      "outputs": [
        {
          "internalType": "string[]",
          "name": "",
          "type": "string[]"
        }
      ],
      "payable": false,
      "stateMutability": "view",
      "type": "function"
    },
    {
      "constant": true,
      "inputs": [
        {
          "internalType": "address",
          "name": "PatientAddress",
          "type": "address"
        }
      ],
      "name": "GetPatientAddressToStorj",
      "outputs": [
        {
          "internalType": "string",
          "name": "",
          "type": "string"
        }
      ],
      "payable": false,
      "stateMutability": "view",
      "type": "function"
    },
    {
      "constant": true,
      "inputs": [
        {
          "internalType": "string",
          "name": "doctorPublicKey",
          "type": "string"
        }
      ],
      "name": "GetPatientsForDoctor",
      "outputs": [
        {
          "internalType": "address[]",
          "name": "",
          "type": "address[]"
        }
      ],
      "payable": false,
      "stateMutability": "view",
      "type": "function"
    },
    {
      "constant": true,
      "inputs": [
        {
          "internalType": "address",
          "name": "patientAddress",
          "type": "address"
        }
      ],
      "name": "GetPendingDoctorsForPatient",
      "outputs": [
        {
          "internalType": "string[]",
          "name": "",
          "type": "string[]"
        }
      ],
      "payable": false,
      "stateMutability": "view",
      "type": "function"
    },
    {
      "constant": true,
      "inputs": [
        {
          "internalType": "string",
          "name": "doctorPublicKey",
          "type": "string"
        }
      ],
      "name": "GetPendingPatientsForDoctor",
      "outputs": [
        {
          "internalType": "address[]",
          "name": "",
          "type": "address[]"
        }
      ],
      "payable": false,
      "stateMutability": "view",
      "type": "function"
    },
    {
      "constant": false,
      "inputs": [
        {
          "internalType": "string",
          "name": "doctorPublicKey",
          "type": "string"
        },
        {
          "internalType": "string",
          "name": "token",
          "type": "string"
        }
      ],
      "name": "Set",
      "outputs": [
        {
          "internalType": "bool",
          "name": "",
          "type": "bool"
        }
      ],
      "payable": false,
      "stateMutability": "nonpayable",
      "type": "function"
    },
    {
      "constant": false,
      "inputs": [
        {
          "internalType": "address",
          "name": "doctorAddress",
          "type": "address"
        },
        {
          "internalType": "string",
          "name": "storjFile",
          "type": "string"
        },
        {
          "internalType": "string",
          "name": "storjToken",
          "type": "string"
        }
      ],
      "name": "SetDoctorToStorj",
      "outputs": [
        {
          "internalType": "string",
          "name": "",
          "type": "string"
        }
      ],
      "payable": false,
      "stateMutability": "nonpayable",
      "type": "function"
    },
    {
      "constant": false,
      "inputs": [
        {
          "internalType": "address",
          "name": "PatientAddress",
          "type": "address"
        },
        {
          "internalType": "string",
          "name": "encryptedStorjToken",
          "type": "string"
        }
      ],
      "name": "SetPatientAddressToStorj",
      "outputs": [
        {
          "internalType": "string",
          "name": "",
          "type": "string"
        }
      ],
      "payable": false,
      "stateMutability": "nonpayable",
      "type": "function"
    },
    {
      "constant": false,
      "inputs": [
        {
          "internalType": "address",
          "name": "patientAddress",
          "type": "address"
        },
        {
          "internalType": "string",
          "name": "doctorPublicKey",
          "type": "string"
        }
      ],
      "name": "SetPending",
      "outputs": [
        {
          "internalType": "bool",
          "name": "",
          "type": "bool"
        }
      ],
      "payable": false,
      "stateMutability": "nonpayable",
      "type": "function"
    }
  ],
  "bytecode": "0x608060405234801561001057600080fd5b50611c31806100206000396000f3fe608060405234801561001057600080fd5b50600436106100a95760003560e01c8063c55f775f11610071578063c55f775f1461019e578063c9980eab146101ce578063d8c15721146101fe578063ddc5a3951461022e578063e88bbab51461025e578063fcf948731461028e576100a9565b80632e532bb4146100ae57806384c219cf146100de578063954817a31461010e5780639acff9c61461013e578063bb7911e61461016e575b600080fd5b6100c860048036036100c39190810190611543565b6102be565b6040516100d591906119b5565b60405180910390f35b6100f860048036036100f3919081019061151a565b6104d8565b60405161010591906119d0565b60405180910390f35b61012860048036036101239190810190611616565b6105b8565b6040516101359190611971565b60405180910390f35b6101586004803603610153919081019061151a565b610664565b6040516101659190611993565b60405180910390f35b61018860048036036101839190810190611543565b61078c565b60405161019591906119d0565b60405180910390f35b6101b860048036036101b39190810190611597565b61088a565b6040516101c591906119d0565b60405180910390f35b6101e860048036036101e39190810190611543565b610a6a565b6040516101f591906119d0565b60405180910390f35b61021860048036036102139190810190611543565b610b68565b60405161022591906119d0565b60405180910390f35b61024860048036036102439190810190611657565b610c9c565b60405161025591906119b5565b60405180910390f35b61027860048036036102739190810190611616565b610f43565b6040516102859190611971565b60405180910390f35b6102a860048036036102a3919081019061151a565b610fef565b6040516102b59190611993565b60405180910390f35b600080600090505b600260008573ffffffffffffffffffffffffffffffffffffffff1673ffffffffffffffffffffffffffffffffffffffff168152602001908152602001600020805490508110156103ce57826040516020016103219190611943565b60405160208183030381529060405280519060200120600260008673ffffffffffffffffffffffffffffffffffffffff1673ffffffffffffffffffffffffffffffffffffffff168152602001908152602001600020828154811061038157fe5b9060005260206000200160405160200161039b919061195a565b6040516020818303038152906040528051906020012014156103c15760009150506104d2565b80806001019150506102c6565b50600260008473ffffffffffffffffffffffffffffffffffffffff1673ffffffffffffffffffffffffffffffffffffffff1681526020019081526020016000208290806001815401808255809150509060018203906000526020600020016000909192909190915090805190602001906104499291906113c4565b505060038260405161045b9190611943565b90815260200160405180910390208390806001815401808255809150509060018203906000526020600020016000909192909190916101000a81548173ffffffffffffffffffffffffffffffffffffffff021916908373ffffffffffffffffffffffffffffffffffffffff16021790555050600190505b92915050565b60606000808373ffffffffffffffffffffffffffffffffffffffff1673ffffffffffffffffffffffffffffffffffffffff1681526020019081526020016000208054600181600116156101000203166002900480601f0160208091040260200160405190810160405280929190818152602001828054600181600116156101000203166002900480156105ac5780601f10610581576101008083540402835291602001916105ac565b820191906000526020600020905b81548152906001019060200180831161058f57829003601f168201915b50505050509050919050565b60606005826040516105ca9190611943565b908152602001604051809103902080548060200260200160405190810160405280929190818152602001828054801561065857602002820191906000526020600020905b8160009054906101000a900473ffffffffffffffffffffffffffffffffffffffff1673ffffffffffffffffffffffffffffffffffffffff168152602001906001019080831161060e575b50505050509050919050565b6060600260008373ffffffffffffffffffffffffffffffffffffffff1673ffffffffffffffffffffffffffffffffffffffff168152602001908152602001600020805480602002602001604051908101604052809291908181526020016000905b82821015610781578382906000526020600020018054600181600116156101000203166002900480601f01602080910402602001604051908101604052809291908181526020018280546001816001161561010002031660029004801561076d5780601f106107425761010080835404028352916020019161076d565b820191906000526020600020905b81548152906001019060200180831161075057829003601f168201915b5050505050815260200190600101906106c5565b505050509050919050565b6060600160008473ffffffffffffffffffffffffffffffffffffffff1673ffffffffffffffffffffffffffffffffffffffff168152602001908152602001600020826040516107db9190611943565b90815260200160405180910390208054600181600116156101000203166002900480601f01602080910402602001604051908101604052809291908181526020018280546001816001161561010002031660029004801561087d5780601f106108525761010080835404028352916020019161087d565b820191906000526020600020905b81548152906001019060200180831161086057829003601f168201915b5050505050905092915050565b60603373ffffffffffffffffffffffffffffffffffffffff168473ffffffffffffffffffffffffffffffffffffffff16146108fc576040518060400160405280601581526020017f73656e646572206e6f7420617574686f72697a656400000000000000000000008152509050610a63565b81600660008673ffffffffffffffffffffffffffffffffffffffff1673ffffffffffffffffffffffffffffffffffffffff1681526020019081526020016000208460405161094a9190611943565b9081526020016040518091039020908051906020019061096b9291906113c4565b50600660008573ffffffffffffffffffffffffffffffffffffffff1673ffffffffffffffffffffffffffffffffffffffff168152602001908152602001600020836040516109b99190611943565b90815260200160405180910390208054600181600116156101000203166002900480601f016020809104026020016040519081016040528092919081815260200182805460018160011615610100020316600290048015610a5b5780601f10610a3057610100808354040283529160200191610a5b565b820191906000526020600020905b815481529060010190602001808311610a3e57829003601f168201915b505050505090505b9392505050565b6060600660008473ffffffffffffffffffffffffffffffffffffffff1673ffffffffffffffffffffffffffffffffffffffff16815260200190815260200160002082604051610ab99190611943565b90815260200160405180910390208054600181600116156101000203166002900480601f016020809104026020016040519081016040528092919081815260200182805460018160011615610100020316600290048015610b5b5780601f10610b3057610100808354040283529160200191610b5b565b820191906000526020600020905b815481529060010190602001808311610b3e57829003601f168201915b5050505050905092915050565b6060816000808573ffffffffffffffffffffffffffffffffffffffff1673ffffffffffffffffffffffffffffffffffffffff1681526020019081526020016000209080519060200190610bbc9291906113c4565b506000808473ffffffffffffffffffffffffffffffffffffffff1673ffffffffffffffffffffffffffffffffffffffff1681526020019081526020016000208054600181600116156101000203166002900480601f016020809104026020016040519081016040528092919081815260200182805460018160011615610100020316600290048015610c8f5780601f10610c6457610100808354040283529160200191610c8f565b820191906000526020600020905b815481529060010190602001808311610c7257829003601f168201915b5050505050905092915050565b6000806000905060008090505b600460003373ffffffffffffffffffffffffffffffffffffffff1673ffffffffffffffffffffffffffffffffffffffff16815260200190815260200160002080549050811015610db05784604051602001610d049190611943565b60405160208183030381529060405280519060200120600460003373ffffffffffffffffffffffffffffffffffffffff1673ffffffffffffffffffffffffffffffffffffffff1681526020019081526020016000208281548110610d6457fe5b90600052602060002001604051602001610d7e919061195a565b604051602081830303815290604052805190602001201415610da35760019150610db0565b8080600101915050610ca9565b50600015158115151415610ebd57600460003373ffffffffffffffffffffffffffffffffffffffff1673ffffffffffffffffffffffffffffffffffffffff168152602001908152602001600020849080600181540180825580915050906001820390600052602060002001600090919290919091509080519060200190610e389291906113c4565b5050600584604051610e4a9190611943565b90815260200160405180910390203390806001815401808255809150509060018203906000526020600020016000909192909190916101000a81548173ffffffffffffffffffffffffffffffffffffffff021916908373ffffffffffffffffffffffffffffffffffffffff160217905550505b82600160003373ffffffffffffffffffffffffffffffffffffffff1673ffffffffffffffffffffffffffffffffffffffff16815260200190815260200160002085604051610f0b9190611943565b90815260200160405180910390209080519060200190610f2c9291906113c4565b50610f373385611117565b50600191505092915050565b6060600382604051610f559190611943565b9081526020016040518091039020805480602002602001604051908101604052809291908181526020018280548015610fe357602002820191906000526020600020905b8160009054906101000a900473ffffffffffffffffffffffffffffffffffffffff1673ffffffffffffffffffffffffffffffffffffffff1681526020019060010190808311610f99575b50505050509050919050565b6060600460008373ffffffffffffffffffffffffffffffffffffffff1673ffffffffffffffffffffffffffffffffffffffff168152602001908152602001600020805480602002602001604051908101604052809291908181526020016000905b8282101561110c578382906000526020600020018054600181600116156101000203166002900480601f0160208091040260200160405190810160405280929190818152602001828054600181600116156101000203166002900480156110f85780601f106110cd576101008083540402835291602001916110f8565b820191906000526020600020905b8154815290600101906020018083116110db57829003601f168201915b505050505081526020019060010190611050565b505050509050919050565b600080600090505b600260008573ffffffffffffffffffffffffffffffffffffffff1673ffffffffffffffffffffffffffffffffffffffff1681526020019081526020016000208054905081101561127e578260405160200161117a9190611943565b60405160208183030381529060405280519060200120600260008673ffffffffffffffffffffffffffffffffffffffff1673ffffffffffffffffffffffffffffffffffffffff16815260200190815260200160002082815481106111da57fe5b906000526020600020016040516020016111f4919061195a565b60405160208183030381529060405280519060200120141561127157600260008573ffffffffffffffffffffffffffffffffffffffff1673ffffffffffffffffffffffffffffffffffffffff168152602001908152602001600020818154811061125a57fe5b9060005260206000200160006112709190611444565b5b808060010191505061111f565b5060008090505b6003836040516112959190611943565b9081526020016040518091039020805490508110156113b957836040516020016112bf9190611928565b604051602081830303815290604052805190602001206003846040516112e59190611943565b908152602001604051809103902082815481106112fe57fe5b9060005260206000200160009054906101000a900473ffffffffffffffffffffffffffffffffffffffff166040516020016113399190611928565b6040516020818303038152906040528051906020012014156113ac576003836040516113659190611943565b9081526020016040518091039020818154811061137e57fe5b9060005260206000200160006101000a81549073ffffffffffffffffffffffffffffffffffffffff02191690555b8080600101915050611285565b506001905092915050565b828054600181600116156101000203166002900490600052602060002090601f016020900481019282601f1061140557805160ff1916838001178555611433565b82800160010185558215611433579182015b82811115611432578251825591602001919060010190611417565b5b509050611440919061148c565b5090565b50805460018160011615610100020316600290046000825580601f1061146a5750611489565b601f016020900490600052602060002090810190611488919061148c565b5b50565b6114ae91905b808211156114aa576000816000905550600101611492565b5090565b90565b6000813590506114c081611bd7565b92915050565b600082601f8301126114d757600080fd5b81356114ea6114e582611a1f565b6119f2565b9150808252602083016020830185838301111561150657600080fd5b611511838284611b53565b50505092915050565b60006020828403121561152c57600080fd5b600061153a848285016114b1565b91505092915050565b6000806040838503121561155657600080fd5b6000611564858286016114b1565b925050602083013567ffffffffffffffff81111561158157600080fd5b61158d858286016114c6565b9150509250929050565b6000806000606084860312156115ac57600080fd5b60006115ba868287016114b1565b935050602084013567ffffffffffffffff8111156115d757600080fd5b6115e3868287016114c6565b925050604084013567ffffffffffffffff81111561160057600080fd5b61160c868287016114c6565b9150509250925092565b60006020828403121561162857600080fd5b600082013567ffffffffffffffff81111561164257600080fd5b61164e848285016114c6565b91505092915050565b6000806040838503121561166a57600080fd5b600083013567ffffffffffffffff81111561168457600080fd5b611690858286016114c6565b925050602083013567ffffffffffffffff8111156116ad57600080fd5b6116b9858286016114c6565b9150509250929050565b60006116cf83836116ef565b60208301905092915050565b60006116e78383611861565b905092915050565b6116f881611b15565b82525050565b61170f61170a82611b15565b611b95565b82525050565b600061172082611a80565b61172a8185611ac6565b935061173583611a4b565b8060005b8381101561176657815161174d88826116c3565b975061175883611aac565b925050600181019050611739565b5085935050505092915050565b600061177e82611a8b565b6117888185611ad7565b93508360208202850161179a85611a5b565b8060005b858110156117d657848403895281516117b785826116db565b94506117c283611ab9565b925060208a0199505060018101905061179e565b50829750879550505050505092915050565b6117f181611b27565b82525050565b600061180282611aa1565b61180c8185611af9565b935061181c818560208601611b62565b61182581611bb9565b840191505092915050565b600061183b82611aa1565b6118458185611b0a565b9350611855818560208601611b62565b80840191505092915050565b600061186c82611a96565b6118768185611ae8565b9350611886818560208601611b62565b61188f81611bb9565b840191505092915050565b6000815460018116600081146118b757600181146118dc57611920565b607f60028304166118c88187611b0a565b955060ff1983168652808601935050611920565b600282046118ea8187611b0a565b95506118f585611a6b565b60005b82811015611917578154818901526001820191506020810190506118f8565b82880195505050505b505092915050565b600061193482846116fe565b60148201915081905092915050565b600061194f8284611830565b915081905092915050565b6000611966828461189a565b915081905092915050565b6000602082019050818103600083015261198b8184611715565b905092915050565b600060208201905081810360008301526119ad8184611773565b905092915050565b60006020820190506119ca60008301846117e8565b92915050565b600060208201905081810360008301526119ea81846117f7565b905092915050565b6000604051905081810181811067ffffffffffffffff82111715611a1557600080fd5b8060405250919050565b600067ffffffffffffffff821115611a3657600080fd5b601f19601f8301169050602081019050919050565b6000819050602082019050919050565b6000819050602082019050919050565b60008190508160005260206000209050919050565b600081519050919050565b600081519050919050565b600081519050919050565b600081519050919050565b6000602082019050919050565b6000602082019050919050565b600082825260208201905092915050565b600082825260208201905092915050565b600082825260208201905092915050565b600082825260208201905092915050565b600081905092915050565b6000611b2082611b33565b9050919050565b60008115159050919050565b600073ffffffffffffffffffffffffffffffffffffffff82169050919050565b82818337600083830152505050565b60005b83811015611b80578082015181840152602081019050611b65565b83811115611b8f576000848401525b50505050565b6000611ba082611ba7565b9050919050565b6000611bb282611bca565b9050919050565b6000601f19601f8301169050919050565b60008160601b9050919050565b611be081611b15565b8114611beb57600080fd5b5056fea365627a7a723158203b3d0cd4398258a02808aa9e4c894be266b2ba0f4abb0f418971539480f90aff6c6578706572696d656e74616cf564736f6c63430005110040",
  "compiler": {
    "name": "solc",
    "version": "0.5.17+commit.d19bba13.Emscripten.clang",
    "optimizer": {
      "enabled": false,
      "runs": 200
    },
    "evmVersion": "petersburg"
  }
}