{
  "fileName": "MedicalV1.01.sol",
  "contractName": "MedicalV101",
  "source": "pragma experimental ABIEncoderV2;\n\ncontract MedicalV101 {\n    mapping(address => string) PatientAddressToStorj;\n    mapping(address => mapping(string => string)) PatientToDoctorToToken;\n    mapping(address => string[]) PatientToDoctorsPending;\n    mapping(string => address[]) DoctorToPatientsPending;\n    mapping(address => string[]) PatientToDoctors;\n    mapping(string => address[]) DoctorToPatients;\n\n    function SetPatientAddressToStorj(\n        address PatientAddress,\n        string memory encryptedStorjToken\n    ) public returns (string memory) {\n        PatientAddressToStorj[PatientAddress] = encryptedStorjToken;\n        return PatientAddressToStorj[PatientAddress];\n    }\n\n    function GetPatientsForDoctor(string memory doctorPublicKey)\n        public\n        view\n        returns (address[] memory)\n    {\n        return DoctorToPatients[doctorPublicKey];\n    }\n\n    function GetDoctorsForPatient(address patientAddress)\n        public\n        view\n        returns (string[] memory)\n    {\n        return PatientToDoctors[patientAddress];\n    }\n\n    function GetPatientAddressToStorj(address PatientAddress)\n        public\n        view\n        returns (string memory)\n    {\n        return PatientAddressToStorj[PatientAddress];\n    }\n\n    function Set(string memory doctorPublicKey, string memory token)\n        public\n        returns (bool)\n    {\n        bool doctorExists = false;\n        for (uint256 i = 0; i < PatientToDoctors[msg.sender].length; i++) {\n            if (\n                keccak256(abi.encodePacked(PatientToDoctors[msg.sender][i])) ==\n                keccak256(abi.encodePacked(doctorPublicKey))\n            ) {\n                doctorExists = true;\n                break;\n            }\n        }\n        if (doctorExists == false) {\n            PatientToDoctors[msg.sender].push(doctorPublicKey);\n            DoctorToPatients[doctorPublicKey].push(msg.sender);\n        }\n        PatientToDoctorToToken[msg.sender][doctorPublicKey] = token;\n        DeletePending(msg.sender, doctorPublicKey);\n        return true;\n    }\n\n    function Get(address patientAddress, string memory doctorPublicKey)\n        public\n        view\n        returns (string memory)\n    {\n        return PatientToDoctorToToken[patientAddress][doctorPublicKey];\n    }\n\n    function SetPending(address patientAddress, string memory doctorPublicKey)\n        public\n        returns (bool)\n    {   \n        //faudra vérifier le sender, comparaison ci-dessous marche pas...\n        //if(bytes20(msg.sender) != bytes20(uint160 (uint256 (keccak256 (abi.encodePacked(doctorPublicKey)))))){\n          //  return false;\n        //}\n        for (\n            uint256 i = 0;\n            i < PatientToDoctorsPending[patientAddress].length;\n            i++\n        ) {\n            if (\n                keccak256(\n                    abi.encodePacked(PatientToDoctorsPending[patientAddress][i])\n                ) == keccak256(abi.encodePacked(doctorPublicKey))\n            ) {\n                return false;\n            }\n        }\n        PatientToDoctorsPending[patientAddress].push(doctorPublicKey);\n        DoctorToPatientsPending[doctorPublicKey].push(patientAddress);\n        return true;\n    }\n\n    function GetPendingDoctorsForPatient(address patientAddress)\n        public\n        view\n        returns (string[] memory)\n    {\n        return PatientToDoctorsPending[patientAddress];\n    }\n\n    function GetPendingPatientsForDoctor(string memory doctorPublicKey)\n        public\n        view\n        returns (address[] memory)\n    {\n        return DoctorToPatientsPending[doctorPublicKey];\n    }\n\n    function DeletePending(\n        address patientAddress,\n        string memory doctorPublicKey\n    ) private returns (bool) {\n        for (\n            uint256 i = 0;\n            i < PatientToDoctorsPending[patientAddress].length;\n            i++\n        ) {\n            if (\n                keccak256(\n                    abi.encodePacked(PatientToDoctorsPending[patientAddress][i])\n                ) == keccak256(abi.encodePacked(doctorPublicKey))\n            ) {\n                //TODO faut supprimer le stockage aussi, delete attribue 0, stockage persiste\n                delete PatientToDoctorsPending[patientAddress][i];\n            }\n        }\n        for (\n            uint256 i = 0;\n            i < DoctorToPatientsPending[doctorPublicKey].length;\n            i++\n        ) {\n            if (\n                keccak256(\n                    abi.encodePacked(\n                        DoctorToPatientsPending[doctorPublicKey][i]\n                    )\n                ) == keccak256(abi.encodePacked(patientAddress))\n            ) {\n                //TODO faut supprimer le stockage aussi, delete attribue 0, stockage persiste\n                delete DoctorToPatientsPending[doctorPublicKey][i];\n            }\n        }\n        return true;\n    }\n}\n\n//local test wallet: 0x90F8bf6A479f320ead074411a4B0e7944Ea8c9C1\n",
  "sourcePath": "contracts/MedicalV1.01.sol",
  "abi": [
    {
      "constant": true,
      "inputs": [
        {
          "internalType": "address",
          "name": "patientAddress",
          "type": "address"
        },
        {
          "internalType": "string",
          "name": "doctorPublicKey",
          "type": "string"
        }
      ],
      "name": "Get",
      "outputs": [
        {
          "internalType": "string",
          "name": "",
          "type": "string"
        }
      ],
      "payable": false,
      "stateMutability": "view",
      "type": "function"
    },
    {
      "constant": true,
      "inputs": [
        {
          "internalType": "address",
          "name": "patientAddress",
          "type": "address"
        }
      ],
      "name": "GetDoctorsForPatient",
      "outputs": [
        {
          "internalType": "string[]",
          "name": "",
          "type": "string[]"
        }
      ],
      "payable": false,
      "stateMutability": "view",
      "type": "function"
    },
    {
      "constant": true,
      "inputs": [
        {
          "internalType": "address",
          "name": "PatientAddress",
          "type": "address"
        }
      ],
      "name": "GetPatientAddressToStorj",
      "outputs": [
        {
          "internalType": "string",
          "name": "",
          "type": "string"
        }
      ],
      "payable": false,
      "stateMutability": "view",
      "type": "function"
    },
    {
      "constant": true,
      "inputs": [
        {
          "internalType": "string",
          "name": "doctorPublicKey",
          "type": "string"
        }
      ],
      "name": "GetPatientsForDoctor",
      "outputs": [
        {
          "internalType": "address[]",
          "name": "",
          "type": "address[]"
        }
      ],
      "payable": false,
      "stateMutability": "view",
      "type": "function"
    },
    {
      "constant": true,
      "inputs": [
        {
          "internalType": "address",
          "name": "patientAddress",
          "type": "address"
        }
      ],
      "name": "GetPendingDoctorsForPatient",
      "outputs": [
        {
          "internalType": "string[]",
          "name": "",
          "type": "string[]"
        }
      ],
      "payable": false,
      "stateMutability": "view",
      "type": "function"
    },
    {
      "constant": true,
      "inputs": [
        {
          "internalType": "string",
          "name": "doctorPublicKey",
          "type": "string"
        }
      ],
      "name": "GetPendingPatientsForDoctor",
      "outputs": [
        {
          "internalType": "address[]",
          "name": "",
          "type": "address[]"
        }
      ],
      "payable": false,
      "stateMutability": "view",
      "type": "function"
    },
    {
      "constant": false,
      "inputs": [
        {
          "internalType": "string",
          "name": "doctorPublicKey",
          "type": "string"
        },
        {
          "internalType": "string",
          "name": "token",
          "type": "string"
        }
      ],
      "name": "Set",
      "outputs": [
        {
          "internalType": "bool",
          "name": "",
          "type": "bool"
        }
      ],
      "payable": false,
      "stateMutability": "nonpayable",
      "type": "function"
    },
    {
      "constant": false,
      "inputs": [
        {
          "internalType": "address",
          "name": "PatientAddress",
          "type": "address"
        },
        {
          "internalType": "string",
          "name": "encryptedStorjToken",
          "type": "string"
        }
      ],
      "name": "SetPatientAddressToStorj",
      "outputs": [
        {
          "internalType": "string",
          "name": "",
          "type": "string"
        }
      ],
      "payable": false,
      "stateMutability": "nonpayable",
      "type": "function"
    },
    {
      "constant": false,
      "inputs": [
        {
          "internalType": "address",
          "name": "patientAddress",
          "type": "address"
        },
        {
          "internalType": "string",
          "name": "doctorPublicKey",
          "type": "string"
        }
      ],
      "name": "SetPending",
      "outputs": [
        {
          "internalType": "bool",
          "name": "",
          "type": "bool"
        }
      ],
      "payable": false,
      "stateMutability": "nonpayable",
      "type": "function"
    }
  ],
  "bytecode": "0x608060405234801561001057600080fd5b5061185e806100206000396000f3fe608060405234801561001057600080fd5b50600436106100935760003560e01c8063bb7911e611610066578063bb7911e614610158578063d8c1572114610188578063ddc5a395146101b8578063e88bbab5146101e8578063fcf948731461021857610093565b80632e532bb41461009857806384c219cf146100c8578063954817a3146100f85780639acff9c614610128575b600080fd5b6100b260048036036100ad91908101906111ef565b610248565b6040516100bf91906115e2565b60405180910390f35b6100e260048036036100dd91908101906111c6565b610462565b6040516100ef91906115fd565b60405180910390f35b610112600480360361010d9190810190611243565b610542565b60405161011f919061159e565b60405180910390f35b610142600480360361013d91908101906111c6565b6105ee565b60405161014f91906115c0565b60405180910390f35b610172600480360361016d91908101906111ef565b610716565b60405161017f91906115fd565b60405180910390f35b6101a2600480360361019d91908101906111ef565b610814565b6040516101af91906115fd565b60405180910390f35b6101d260048036036101cd9190810190611284565b610948565b6040516101df91906115e2565b60405180910390f35b61020260048036036101fd9190810190611243565b610bef565b60405161020f919061159e565b60405180910390f35b610232600480360361022d91908101906111c6565b610c9b565b60405161023f91906115c0565b60405180910390f35b600080600090505b600260008573ffffffffffffffffffffffffffffffffffffffff1673ffffffffffffffffffffffffffffffffffffffff1681526020019081526020016000208054905081101561035857826040516020016102ab9190611570565b60405160208183030381529060405280519060200120600260008673ffffffffffffffffffffffffffffffffffffffff1673ffffffffffffffffffffffffffffffffffffffff168152602001908152602001600020828154811061030b57fe5b906000526020600020016040516020016103259190611587565b60405160208183030381529060405280519060200120141561034b57600091505061045c565b8080600101915050610250565b50600260008473ffffffffffffffffffffffffffffffffffffffff1673ffffffffffffffffffffffffffffffffffffffff1681526020019081526020016000208290806001815401808255809150509060018203906000526020600020016000909192909190915090805190602001906103d3929190611070565b50506003826040516103e59190611570565b90815260200160405180910390208390806001815401808255809150509060018203906000526020600020016000909192909190916101000a81548173ffffffffffffffffffffffffffffffffffffffff021916908373ffffffffffffffffffffffffffffffffffffffff16021790555050600190505b92915050565b60606000808373ffffffffffffffffffffffffffffffffffffffff1673ffffffffffffffffffffffffffffffffffffffff1681526020019081526020016000208054600181600116156101000203166002900480601f0160208091040260200160405190810160405280929190818152602001828054600181600116156101000203166002900480156105365780601f1061050b57610100808354040283529160200191610536565b820191906000526020600020905b81548152906001019060200180831161051957829003601f168201915b50505050509050919050565b60606005826040516105549190611570565b90815260200160405180910390208054806020026020016040519081016040528092919081815260200182805480156105e257602002820191906000526020600020905b8160009054906101000a900473ffffffffffffffffffffffffffffffffffffffff1673ffffffffffffffffffffffffffffffffffffffff1681526020019060010190808311610598575b50505050509050919050565b6060600260008373ffffffffffffffffffffffffffffffffffffffff1673ffffffffffffffffffffffffffffffffffffffff168152602001908152602001600020805480602002602001604051908101604052809291908181526020016000905b8282101561070b578382906000526020600020018054600181600116156101000203166002900480601f0160208091040260200160405190810160405280929190818152602001828054600181600116156101000203166002900480156106f75780601f106106cc576101008083540402835291602001916106f7565b820191906000526020600020905b8154815290600101906020018083116106da57829003601f168201915b50505050508152602001906001019061064f565b505050509050919050565b6060600160008473ffffffffffffffffffffffffffffffffffffffff1673ffffffffffffffffffffffffffffffffffffffff168152602001908152602001600020826040516107659190611570565b90815260200160405180910390208054600181600116156101000203166002900480601f0160208091040260200160405190810160405280929190818152602001828054600181600116156101000203166002900480156108075780601f106107dc57610100808354040283529160200191610807565b820191906000526020600020905b8154815290600101906020018083116107ea57829003601f168201915b5050505050905092915050565b6060816000808573ffffffffffffffffffffffffffffffffffffffff1673ffffffffffffffffffffffffffffffffffffffff1681526020019081526020016000209080519060200190610868929190611070565b506000808473ffffffffffffffffffffffffffffffffffffffff1673ffffffffffffffffffffffffffffffffffffffff1681526020019081526020016000208054600181600116156101000203166002900480601f01602080910402602001604051908101604052809291908181526020018280546001816001161561010002031660029004801561093b5780601f106109105761010080835404028352916020019161093b565b820191906000526020600020905b81548152906001019060200180831161091e57829003601f168201915b5050505050905092915050565b6000806000905060008090505b600460003373ffffffffffffffffffffffffffffffffffffffff1673ffffffffffffffffffffffffffffffffffffffff16815260200190815260200160002080549050811015610a5c57846040516020016109b09190611570565b60405160208183030381529060405280519060200120600460003373ffffffffffffffffffffffffffffffffffffffff1673ffffffffffffffffffffffffffffffffffffffff1681526020019081526020016000208281548110610a1057fe5b90600052602060002001604051602001610a2a9190611587565b604051602081830303815290604052805190602001201415610a4f5760019150610a5c565b8080600101915050610955565b50600015158115151415610b6957600460003373ffffffffffffffffffffffffffffffffffffffff1673ffffffffffffffffffffffffffffffffffffffff168152602001908152602001600020849080600181540180825580915050906001820390600052602060002001600090919290919091509080519060200190610ae4929190611070565b5050600584604051610af69190611570565b90815260200160405180910390203390806001815401808255809150509060018203906000526020600020016000909192909190916101000a81548173ffffffffffffffffffffffffffffffffffffffff021916908373ffffffffffffffffffffffffffffffffffffffff160217905550505b82600160003373ffffffffffffffffffffffffffffffffffffffff1673ffffffffffffffffffffffffffffffffffffffff16815260200190815260200160002085604051610bb79190611570565b90815260200160405180910390209080519060200190610bd8929190611070565b50610be33385610dc3565b50600191505092915050565b6060600382604051610c019190611570565b9081526020016040518091039020805480602002602001604051908101604052809291908181526020018280548015610c8f57602002820191906000526020600020905b8160009054906101000a900473ffffffffffffffffffffffffffffffffffffffff1673ffffffffffffffffffffffffffffffffffffffff1681526020019060010190808311610c45575b50505050509050919050565b6060600460008373ffffffffffffffffffffffffffffffffffffffff1673ffffffffffffffffffffffffffffffffffffffff168152602001908152602001600020805480602002602001604051908101604052809291908181526020016000905b82821015610db8578382906000526020600020018054600181600116156101000203166002900480601f016020809104026020016040519081016040528092919081815260200182805460018160011615610100020316600290048015610da45780601f10610d7957610100808354040283529160200191610da4565b820191906000526020600020905b815481529060010190602001808311610d8757829003601f168201915b505050505081526020019060010190610cfc565b505050509050919050565b600080600090505b600260008573ffffffffffffffffffffffffffffffffffffffff1673ffffffffffffffffffffffffffffffffffffffff16815260200190815260200160002080549050811015610f2a5782604051602001610e269190611570565b60405160208183030381529060405280519060200120600260008673ffffffffffffffffffffffffffffffffffffffff1673ffffffffffffffffffffffffffffffffffffffff1681526020019081526020016000208281548110610e8657fe5b90600052602060002001604051602001610ea09190611587565b604051602081830303815290604052805190602001201415610f1d57600260008573ffffffffffffffffffffffffffffffffffffffff1673ffffffffffffffffffffffffffffffffffffffff1681526020019081526020016000208181548110610f0657fe5b906000526020600020016000610f1c91906110f0565b5b8080600101915050610dcb565b5060008090505b600383604051610f419190611570565b9081526020016040518091039020805490508110156110655783604051602001610f6b9190611555565b60405160208183030381529060405280519060200120600384604051610f919190611570565b90815260200160405180910390208281548110610faa57fe5b9060005260206000200160009054906101000a900473ffffffffffffffffffffffffffffffffffffffff16604051602001610fe59190611555565b604051602081830303815290604052805190602001201415611058576003836040516110119190611570565b9081526020016040518091039020818154811061102a57fe5b9060005260206000200160006101000a81549073ffffffffffffffffffffffffffffffffffffffff02191690555b8080600101915050610f31565b506001905092915050565b828054600181600116156101000203166002900490600052602060002090601f016020900481019282601f106110b157805160ff19168380011785556110df565b828001600101855582156110df579182015b828111156110de5782518255916020019190600101906110c3565b5b5090506110ec9190611138565b5090565b50805460018160011615610100020316600290046000825580601f106111165750611135565b601f0160209004906000526020600020908101906111349190611138565b5b50565b61115a91905b8082111561115657600081600090555060010161113e565b5090565b90565b60008135905061116c81611804565b92915050565b600082601f83011261118357600080fd5b81356111966111918261164c565b61161f565b915080825260208301602083018583830111156111b257600080fd5b6111bd838284611780565b50505092915050565b6000602082840312156111d857600080fd5b60006111e68482850161115d565b91505092915050565b6000806040838503121561120257600080fd5b60006112108582860161115d565b925050602083013567ffffffffffffffff81111561122d57600080fd5b61123985828601611172565b9150509250929050565b60006020828403121561125557600080fd5b600082013567ffffffffffffffff81111561126f57600080fd5b61127b84828501611172565b91505092915050565b6000806040838503121561129757600080fd5b600083013567ffffffffffffffff8111156112b157600080fd5b6112bd85828601611172565b925050602083013567ffffffffffffffff8111156112da57600080fd5b6112e685828601611172565b9150509250929050565b60006112fc838361131c565b60208301905092915050565b6000611314838361148e565b905092915050565b61132581611742565b82525050565b61133c61133782611742565b6117c2565b82525050565b600061134d826116ad565b61135781856116f3565b935061136283611678565b8060005b8381101561139357815161137a88826112f0565b9750611385836116d9565b925050600181019050611366565b5085935050505092915050565b60006113ab826116b8565b6113b58185611704565b9350836020820285016113c785611688565b8060005b8581101561140357848403895281516113e48582611308565b94506113ef836116e6565b925060208a019950506001810190506113cb565b50829750879550505050505092915050565b61141e81611754565b82525050565b600061142f826116ce565b6114398185611726565b935061144981856020860161178f565b611452816117e6565b840191505092915050565b6000611468826116ce565b6114728185611737565b935061148281856020860161178f565b80840191505092915050565b6000611499826116c3565b6114a38185611715565b93506114b381856020860161178f565b6114bc816117e6565b840191505092915050565b6000815460018116600081146114e457600181146115095761154d565b607f60028304166114f58187611737565b955060ff198316865280860193505061154d565b600282046115178187611737565b955061152285611698565b60005b8281101561154457815481890152600182019150602081019050611525565b82880195505050505b505092915050565b6000611561828461132b565b60148201915081905092915050565b600061157c828461145d565b915081905092915050565b600061159382846114c7565b915081905092915050565b600060208201905081810360008301526115b88184611342565b905092915050565b600060208201905081810360008301526115da81846113a0565b905092915050565b60006020820190506115f76000830184611415565b92915050565b600060208201905081810360008301526116178184611424565b905092915050565b6000604051905081810181811067ffffffffffffffff8211171561164257600080fd5b8060405250919050565b600067ffffffffffffffff82111561166357600080fd5b601f19601f8301169050602081019050919050565b6000819050602082019050919050565b6000819050602082019050919050565b60008190508160005260206000209050919050565b600081519050919050565b600081519050919050565b600081519050919050565b600081519050919050565b6000602082019050919050565b6000602082019050919050565b600082825260208201905092915050565b600082825260208201905092915050565b600082825260208201905092915050565b600082825260208201905092915050565b600081905092915050565b600061174d82611760565b9050919050565b60008115159050919050565b600073ffffffffffffffffffffffffffffffffffffffff82169050919050565b82818337600083830152505050565b60005b838110156117ad578082015181840152602081019050611792565b838111156117bc576000848401525b50505050565b60006117cd826117d4565b9050919050565b60006117df826117f7565b9050919050565b6000601f19601f8301169050919050565b60008160601b9050919050565b61180d81611742565b811461181857600080fd5b5056fea365627a7a723158206f9b76affb2c2fa77171018e1cb2baac6e9dbb215a8e4d7354db47678a1ba17c6c6578706572696d656e74616cf564736f6c63430005110040",
  "compiler": {
    "name": "solc",
    "version": "0.5.17+commit.d19bba13.Emscripten.clang",
    "optimizer": {
      "enabled": false,
      "runs": 200
    },
    "evmVersion": "petersburg"
  }
}