{
  "fileName": "PubKeyTest.sol",
  "contractName": "PubKeyTest",
  "source": "pragma experimental ABIEncoderV2;\n\ncontract PubKeyTest {\n    mapping(address => mapping(string => string)) PatientToDoctor;\n    mapping(address => string[]) PatientToDoctorPending;\n\n    function Set(string memory doctorPublicKey, string memory token)\n        public\n        returns (bool)\n    {\n        PatientToDoctor[msg.sender][doctorPublicKey] = token;\n        DeletePending(msg.sender, doctorPublicKey);\n        return true;\n    }\n\n    function Get(address patientAddress, string memory doctorPublicKey)\n        public\n        view\n        returns (string memory)\n    {\n        return PatientToDoctor[patientAddress][doctorPublicKey];\n    }\n\n    function SetPending(address patientAddress, string memory doctorPublicKey) public returns (bool) {\n        for (\n            uint256 i = 0;\n            i < PatientToDoctorPending[patientAddress].length;\n            i++\n        ) {\n            if (keccak256(abi.encodePacked(PatientToDoctorPending[patientAddress][i])) == keccak256(abi.encodePacked(doctorPublicKey))) {\n                return false;\n            }\n        }\n        PatientToDoctorPending[patientAddress].push(doctorPublicKey);\n        return true;\n    }\n\n    function GetAllPending(address patientAddress)\n        public\n        view\n        returns (string[] memory)\n    {\n        return PatientToDoctorPending[patientAddress];\n    }\n\n    function DeleteAllPending(address patientAddress) public returns (bool) {\n        delete PatientToDoctorPending[patientAddress];\n        return true;\n    }\n\n    function DeletePending(address patientAddress, string memory doctorPublicKey)\n        public\n        returns (bool)\n    {\n        for (\n            uint256 i = 0;\n            i < PatientToDoctorPending[patientAddress].length;\n            i++\n        ) {\n            if (keccak256(abi.encodePacked(PatientToDoctorPending[patientAddress][i])) == keccak256(abi.encodePacked(doctorPublicKey))) {\n                //TODO faut supprimer le stockage aussi, delete attribue 0, stockage persiste\n                delete PatientToDoctorPending[patientAddress][i];\n            }\n        }\n        return true;\n    }\n}\n\n//local test wallet: 0x90F8bf6A479f320ead074411a4B0e7944Ea8c9C1\n",
  "sourcePath": "contracts/PubKeyTest.sol",
  "abi": [
    {
      "constant": false,
      "inputs": [
        {
          "internalType": "address",
          "name": "patientAddress",
          "type": "address"
        }
      ],
      "name": "DeleteAllPending",
      "outputs": [
        {
          "internalType": "bool",
          "name": "",
          "type": "bool"
        }
      ],
      "payable": false,
      "stateMutability": "nonpayable",
      "type": "function"
    },
    {
      "constant": false,
      "inputs": [
        {
          "internalType": "address",
          "name": "patientAddress",
          "type": "address"
        },
        {
          "internalType": "string",
          "name": "doctorPublicKey",
          "type": "string"
        }
      ],
      "name": "DeletePending",
      "outputs": [
        {
          "internalType": "bool",
          "name": "",
          "type": "bool"
        }
      ],
      "payable": false,
      "stateMutability": "nonpayable",
      "type": "function"
    },
    {
      "constant": true,
      "inputs": [
        {
          "internalType": "address",
          "name": "patientAddress",
          "type": "address"
        },
        {
          "internalType": "string",
          "name": "doctorPublicKey",
          "type": "string"
        }
      ],
      "name": "Get",
      "outputs": [
        {
          "internalType": "string",
          "name": "",
          "type": "string"
        }
      ],
      "payable": false,
      "stateMutability": "view",
      "type": "function"
    },
    {
      "constant": true,
      "inputs": [
        {
          "internalType": "address",
          "name": "patientAddress",
          "type": "address"
        }
      ],
      "name": "GetAllPending",
      "outputs": [
        {
          "internalType": "string[]",
          "name": "",
          "type": "string[]"
        }
      ],
      "payable": false,
      "stateMutability": "view",
      "type": "function"
    },
    {
      "constant": false,
      "inputs": [
        {
          "internalType": "string",
          "name": "doctorPublicKey",
          "type": "string"
        },
        {
          "internalType": "string",
          "name": "token",
          "type": "string"
        }
      ],
      "name": "Set",
      "outputs": [
        {
          "internalType": "bool",
          "name": "",
          "type": "bool"
        }
      ],
      "payable": false,
      "stateMutability": "nonpayable",
      "type": "function"
    },
    {
      "constant": false,
      "inputs": [
        {
          "internalType": "address",
          "name": "patientAddress",
          "type": "address"
        },
        {
          "internalType": "string",
          "name": "doctorPublicKey",
          "type": "string"
        }
      ],
      "name": "SetPending",
      "outputs": [
        {
          "internalType": "bool",
          "name": "",
          "type": "bool"
        }
      ],
      "payable": false,
      "stateMutability": "nonpayable",
      "type": "function"
    }
  ],
  "bytecode": "0x608060405234801561001057600080fd5b50610e49806100206000396000f3fe608060405234801561001057600080fd5b50600436106100625760003560e01c80632e532bb41461006757806336fa752a14610097578063bb7911e6146100c7578063ddc5a395146100f7578063eac09c0514610127578063fc637d9714610157575b600080fd5b610081600480360361007c919081019061095e565b610187565b60405161008e9190610c37565b60405180910390f35b6100b160048036036100ac9190810190610935565b61031f565b6040516100be9190610c37565b60405180910390f35b6100e160048036036100dc919081019061095e565b610375565b6040516100ee9190610c52565b60405180910390f35b610111600480360361010c91908101906109b2565b610472565b60405161011e9190610c37565b60405180910390f35b610141600480360361013c9190810190610935565b6104f8565b60405161014e9190610c15565b60405180910390f35b610171600480360361016c919081019061095e565b610620565b60405161017e9190610c37565b60405180910390f35b600080600090505b600160008573ffffffffffffffffffffffffffffffffffffffff1673ffffffffffffffffffffffffffffffffffffffff1681526020019081526020016000208054905081101561029757826040516020016101ea9190610be7565b60405160208183030381529060405280519060200120600160008673ffffffffffffffffffffffffffffffffffffffff1673ffffffffffffffffffffffffffffffffffffffff168152602001908152602001600020828154811061024a57fe5b906000526020600020016040516020016102649190610bfe565b60405160208183030381529060405280519060200120141561028a576000915050610319565b808060010191505061018f565b50600160008473ffffffffffffffffffffffffffffffffffffffff1673ffffffffffffffffffffffffffffffffffffffff168152602001908152602001600020829080600181540180825580915050906001820390600052602060002001600090919290919091509080519060200190610312929190610792565b5050600190505b92915050565b6000600160008373ffffffffffffffffffffffffffffffffffffffff1673ffffffffffffffffffffffffffffffffffffffff168152602001908152602001600020600061036c9190610812565b60019050919050565b60606000808473ffffffffffffffffffffffffffffffffffffffff1673ffffffffffffffffffffffffffffffffffffffff168152602001908152602001600020826040516103c39190610be7565b90815260200160405180910390208054600181600116156101000203166002900480601f0160208091040260200160405190810160405280929190818152602001828054600181600116156101000203166002900480156104655780601f1061043a57610100808354040283529160200191610465565b820191906000526020600020905b81548152906001019060200180831161044857829003601f168201915b5050505050905092915050565b6000816000803373ffffffffffffffffffffffffffffffffffffffff1673ffffffffffffffffffffffffffffffffffffffff168152602001908152602001600020846040516104c19190610be7565b908152602001604051809103902090805190602001906104e2929190610792565b506104ed3384610620565b506001905092915050565b6060600160008373ffffffffffffffffffffffffffffffffffffffff1673ffffffffffffffffffffffffffffffffffffffff168152602001908152602001600020805480602002602001604051908101604052809291908181526020016000905b82821015610615578382906000526020600020018054600181600116156101000203166002900480601f0160208091040260200160405190810160405280929190818152602001828054600181600116156101000203166002900480156106015780601f106105d657610100808354040283529160200191610601565b820191906000526020600020905b8154815290600101906020018083116105e457829003601f168201915b505050505081526020019060010190610559565b505050509050919050565b600080600090505b600160008573ffffffffffffffffffffffffffffffffffffffff1673ffffffffffffffffffffffffffffffffffffffff1681526020019081526020016000208054905081101561078757826040516020016106839190610be7565b60405160208183030381529060405280519060200120600160008673ffffffffffffffffffffffffffffffffffffffff1673ffffffffffffffffffffffffffffffffffffffff16815260200190815260200160002082815481106106e357fe5b906000526020600020016040516020016106fd9190610bfe565b60405160208183030381529060405280519060200120141561077a57600160008573ffffffffffffffffffffffffffffffffffffffff1673ffffffffffffffffffffffffffffffffffffffff168152602001908152602001600020818154811061076357fe5b9060005260206000200160006107799190610833565b5b8080600101915050610628565b506001905092915050565b828054600181600116156101000203166002900490600052602060002090601f016020900481019282601f106107d357805160ff1916838001178555610801565b82800160010185558215610801579182015b828111156108005782518255916020019190600101906107e5565b5b50905061080e919061087b565b5090565b508054600082559060005260206000209081019061083091906108a0565b50565b50805460018160011615610100020316600290046000825580601f106108595750610878565b601f016020900490600052602060002090810190610877919061087b565b5b50565b61089d91905b80821115610899576000816000905550600101610881565b5090565b90565b6108c991905b808211156108c557600081816108bc9190610833565b506001016108a6565b5090565b90565b6000813590506108db81610def565b92915050565b600082601f8301126108f257600080fd5b813561090561090082610ca1565b610c74565b9150808252602083016020830185838301111561092157600080fd5b61092c838284610d9c565b50505092915050565b60006020828403121561094757600080fd5b6000610955848285016108cc565b91505092915050565b6000806040838503121561097157600080fd5b600061097f858286016108cc565b925050602083013567ffffffffffffffff81111561099c57600080fd5b6109a8858286016108e1565b9150509250929050565b600080604083850312156109c557600080fd5b600083013567ffffffffffffffff8111156109df57600080fd5b6109eb858286016108e1565b925050602083013567ffffffffffffffff811115610a0857600080fd5b610a14858286016108e1565b9150509250929050565b6000610a2a8383610b20565b905092915050565b6000610a3d82610cf2565b610a478185610d20565b935083602082028501610a5985610ccd565b8060005b85811015610a955784840389528151610a768582610a1e565b9450610a8183610d13565b925060208a01995050600181019050610a5d565b50829750879550505050505092915050565b610ab081610d70565b82525050565b6000610ac182610d08565b610acb8185610d42565b9350610adb818560208601610dab565b610ae481610dde565b840191505092915050565b6000610afa82610d08565b610b048185610d53565b9350610b14818560208601610dab565b80840191505092915050565b6000610b2b82610cfd565b610b358185610d31565b9350610b45818560208601610dab565b610b4e81610dde565b840191505092915050565b600081546001811660008114610b765760018114610b9b57610bdf565b607f6002830416610b878187610d53565b955060ff1983168652808601935050610bdf565b60028204610ba98187610d53565b9550610bb485610cdd565b60005b82811015610bd657815481890152600182019150602081019050610bb7565b82880195505050505b505092915050565b6000610bf38284610aef565b915081905092915050565b6000610c0a8284610b59565b915081905092915050565b60006020820190508181036000830152610c2f8184610a32565b905092915050565b6000602082019050610c4c6000830184610aa7565b92915050565b60006020820190508181036000830152610c6c8184610ab6565b905092915050565b6000604051905081810181811067ffffffffffffffff82111715610c9757600080fd5b8060405250919050565b600067ffffffffffffffff821115610cb857600080fd5b601f19601f8301169050602081019050919050565b6000819050602082019050919050565b60008190508160005260206000209050919050565b600081519050919050565b600081519050919050565b600081519050919050565b6000602082019050919050565b600082825260208201905092915050565b600082825260208201905092915050565b600082825260208201905092915050565b600081905092915050565b6000610d6982610d7c565b9050919050565b60008115159050919050565b600073ffffffffffffffffffffffffffffffffffffffff82169050919050565b82818337600083830152505050565b60005b83811015610dc9578082015181840152602081019050610dae565b83811115610dd8576000848401525b50505050565b6000601f19601f8301169050919050565b610df881610d5e565b8114610e0357600080fd5b5056fea365627a7a72315820347180b83446dc5d405e70b2b74d4dc721c8e2f42542745a6b77b91448de3dd46c6578706572696d656e74616cf564736f6c63430005110040",
  "compiler": {
    "name": "solc",
    "version": "0.5.17+commit.d19bba13.Emscripten.clang",
    "optimizer": {
      "enabled": false,
      "runs": 200
    },
    "evmVersion": "petersburg"
  }
}