{
  "fileName": "PubKeyTest.sol",
  "contractName": "PubKeyTest",
  "source": "pragma experimental ABIEncoderV2;\n\ncontract PubKeyTest {\n\n    mapping(address => mapping(string => string)) PatientToDoctor;\n    mapping(address => string[]) PatientToDoctorPending;\n\n    function SetPatientAddressToStorj(\n        address PatientAddress,\n        string memory encryptedStorjToken\n    ) public returns (bool) {\n        PatientAddressToStorj[PatientAddress] = encryptedStorjToken;\n        return true;\n    }\n\n    function GetPatientAddressToStorj(address PatientAddress)\n        public\n        view\n        returns (string memory)\n    {\n        return PatientAddressToStorj[PatientAddress];\n    }\n\n    function Set(string memory doctorPublicKey, string memory token)\n        public\n        returns (bool)\n    {\n        PatientToDoctor[msg.sender][doctorPublicKey] = token;\n        DeletePending(msg.sender, doctorPublicKey);\n        return true;\n    }\n\n    function Get(address patientAddress, string memory doctorPublicKey)\n        public\n        view\n        returns (string memory)\n    {\n        return PatientToDoctor[patientAddress][doctorPublicKey];\n    }\n\n    function SetPending(address patientAddress, string memory doctorPublicKey)\n        public\n        returns (bool)\n    {\n        for (\n            uint256 i = 0;\n            i < PatientToDoctorPending[patientAddress].length;\n            i++\n        ) {\n            if (\n                keccak256(\n                    abi.encodePacked(PatientToDoctorPending[patientAddress][i])\n                ) == keccak256(abi.encodePacked(doctorPublicKey))\n            ) {\n                return false;\n            }\n        }\n        PatientToDoctorPending[patientAddress].push(doctorPublicKey);\n        return true;\n    }\n\n    function GetAllPending(address patientAddress)\n        public\n        view\n        returns (string[] memory)\n    {\n        return PatientToDoctorPending[patientAddress];\n    }\n\n    function DeleteAllPending(address patientAddress) public returns (bool) {\n        delete PatientToDoctorPending[patientAddress];\n        return true;\n    }\n\n    function DeletePending(\n        address patientAddress,\n        string memory doctorPublicKey\n    ) public returns (bool) {\n        for (\n            uint256 i = 0;\n            i < PatientToDoctorPending[patientAddress].length;\n            i++\n        ) {\n            if (\n                keccak256(\n                    abi.encodePacked(PatientToDoctorPending[patientAddress][i])\n                ) == keccak256(abi.encodePacked(doctorPublicKey))\n            ) {\n                //TODO faut supprimer le stockage aussi, delete attribue 0, stockage persiste\n                delete PatientToDoctorPending[patientAddress][i];\n            }\n        }\n        return true;\n    }\n    mapping(address => string) PatientAddressToStorj;\n}\n\n//local test wallet: 0x90F8bf6A479f320ead074411a4B0e7944Ea8c9C1\n",
  "sourcePath": "contracts/PubKeyTest.sol",
  "abi": [
    {
      "constant": false,
      "inputs": [
        {
          "internalType": "address",
          "name": "patientAddress",
          "type": "address"
        }
      ],
      "name": "DeleteAllPending",
      "outputs": [
        {
          "internalType": "bool",
          "name": "",
          "type": "bool"
        }
      ],
      "payable": false,
      "stateMutability": "nonpayable",
      "type": "function"
    },
    {
      "constant": false,
      "inputs": [
        {
          "internalType": "address",
          "name": "patientAddress",
          "type": "address"
        },
        {
          "internalType": "string",
          "name": "doctorPublicKey",
          "type": "string"
        }
      ],
      "name": "DeletePending",
      "outputs": [
        {
          "internalType": "bool",
          "name": "",
          "type": "bool"
        }
      ],
      "payable": false,
      "stateMutability": "nonpayable",
      "type": "function"
    },
    {
      "constant": true,
      "inputs": [
        {
          "internalType": "address",
          "name": "patientAddress",
          "type": "address"
        },
        {
          "internalType": "string",
          "name": "doctorPublicKey",
          "type": "string"
        }
      ],
      "name": "Get",
      "outputs": [
        {
          "internalType": "string",
          "name": "",
          "type": "string"
        }
      ],
      "payable": false,
      "stateMutability": "view",
      "type": "function"
    },
    {
      "constant": true,
      "inputs": [
        {
          "internalType": "address",
          "name": "patientAddress",
          "type": "address"
        }
      ],
      "name": "GetAllPending",
      "outputs": [
        {
          "internalType": "string[]",
          "name": "",
          "type": "string[]"
        }
      ],
      "payable": false,
      "stateMutability": "view",
      "type": "function"
    },
    {
      "constant": true,
      "inputs": [
        {
          "internalType": "address",
          "name": "PatientAddress",
          "type": "address"
        }
      ],
      "name": "GetPatientAddressToStorj",
      "outputs": [
        {
          "internalType": "string",
          "name": "",
          "type": "string"
        }
      ],
      "payable": false,
      "stateMutability": "view",
      "type": "function"
    },
    {
      "constant": false,
      "inputs": [
        {
          "internalType": "string",
          "name": "doctorPublicKey",
          "type": "string"
        },
        {
          "internalType": "string",
          "name": "token",
          "type": "string"
        }
      ],
      "name": "Set",
      "outputs": [
        {
          "internalType": "bool",
          "name": "",
          "type": "bool"
        }
      ],
      "payable": false,
      "stateMutability": "nonpayable",
      "type": "function"
    },
    {
      "constant": false,
      "inputs": [
        {
          "internalType": "address",
          "name": "PatientAddress",
          "type": "address"
        },
        {
          "internalType": "string",
          "name": "encryptedStorjToken",
          "type": "string"
        }
      ],
      "name": "SetPatientAddressToStorj",
      "outputs": [
        {
          "internalType": "bool",
          "name": "",
          "type": "bool"
        }
      ],
      "payable": false,
      "stateMutability": "nonpayable",
      "type": "function"
    },
    {
      "constant": false,
      "inputs": [
        {
          "internalType": "address",
          "name": "patientAddress",
          "type": "address"
        },
        {
          "internalType": "string",
          "name": "doctorPublicKey",
          "type": "string"
        }
      ],
      "name": "SetPending",
      "outputs": [
        {
          "internalType": "bool",
          "name": "",
          "type": "bool"
        }
      ],
      "payable": false,
      "stateMutability": "nonpayable",
      "type": "function"
    }
  ],
  "bytecode": "0x608060405234801561001057600080fd5b50611010806100206000396000f3fe608060405234801561001057600080fd5b50600436106100885760003560e01c8063d8c157211161005b578063d8c157211461014d578063ddc5a3951461017d578063eac09c05146101ad578063fc637d97146101dd57610088565b80632e532bb41461008d57806336fa752a146100bd57806384c219cf146100ed578063bb7911e61461011d575b600080fd5b6100a760048036036100a29190810190610b25565b61020d565b6040516100b49190610dfe565b60405180910390f35b6100d760048036036100d29190810190610afc565b6103a5565b6040516100e49190610dfe565b60405180910390f35b61010760048036036101029190810190610afc565b6103fb565b6040516101149190610e19565b60405180910390f35b61013760048036036101329190810190610b25565b6104dc565b6040516101449190610e19565b60405180910390f35b61016760048036036101629190810190610b25565b6105d9565b6040516101749190610dfe565b60405180910390f35b61019760048036036101929190810190610b79565b610639565b6040516101a49190610dfe565b60405180910390f35b6101c760048036036101c29190810190610afc565b6106bf565b6040516101d49190610ddc565b60405180910390f35b6101f760048036036101f29190810190610b25565b6107e7565b6040516102049190610dfe565b60405180910390f35b600080600090505b600160008573ffffffffffffffffffffffffffffffffffffffff1673ffffffffffffffffffffffffffffffffffffffff1681526020019081526020016000208054905081101561031d57826040516020016102709190610dae565b60405160208183030381529060405280519060200120600160008673ffffffffffffffffffffffffffffffffffffffff1673ffffffffffffffffffffffffffffffffffffffff16815260200190815260200160002082815481106102d057fe5b906000526020600020016040516020016102ea9190610dc5565b60405160208183030381529060405280519060200120141561031057600091505061039f565b8080600101915050610215565b50600160008473ffffffffffffffffffffffffffffffffffffffff1673ffffffffffffffffffffffffffffffffffffffff168152602001908152602001600020829080600181540180825580915050906001820390600052602060002001600090919290919091509080519060200190610398929190610959565b5050600190505b92915050565b6000600160008373ffffffffffffffffffffffffffffffffffffffff1673ffffffffffffffffffffffffffffffffffffffff16815260200190815260200160002060006103f291906109d9565b60019050919050565b6060600260008373ffffffffffffffffffffffffffffffffffffffff1673ffffffffffffffffffffffffffffffffffffffff1681526020019081526020016000208054600181600116156101000203166002900480601f0160208091040260200160405190810160405280929190818152602001828054600181600116156101000203166002900480156104d05780601f106104a5576101008083540402835291602001916104d0565b820191906000526020600020905b8154815290600101906020018083116104b357829003601f168201915b50505050509050919050565b60606000808473ffffffffffffffffffffffffffffffffffffffff1673ffffffffffffffffffffffffffffffffffffffff1681526020019081526020016000208260405161052a9190610dae565b90815260200160405180910390208054600181600116156101000203166002900480601f0160208091040260200160405190810160405280929190818152602001828054600181600116156101000203166002900480156105cc5780601f106105a1576101008083540402835291602001916105cc565b820191906000526020600020905b8154815290600101906020018083116105af57829003601f168201915b5050505050905092915050565b600081600260008573ffffffffffffffffffffffffffffffffffffffff1673ffffffffffffffffffffffffffffffffffffffff168152602001908152602001600020908051906020019061062e929190610959565b506001905092915050565b6000816000803373ffffffffffffffffffffffffffffffffffffffff1673ffffffffffffffffffffffffffffffffffffffff168152602001908152602001600020846040516106889190610dae565b908152602001604051809103902090805190602001906106a9929190610959565b506106b433846107e7565b506001905092915050565b6060600160008373ffffffffffffffffffffffffffffffffffffffff1673ffffffffffffffffffffffffffffffffffffffff168152602001908152602001600020805480602002602001604051908101604052809291908181526020016000905b828210156107dc578382906000526020600020018054600181600116156101000203166002900480601f0160208091040260200160405190810160405280929190818152602001828054600181600116156101000203166002900480156107c85780601f1061079d576101008083540402835291602001916107c8565b820191906000526020600020905b8154815290600101906020018083116107ab57829003601f168201915b505050505081526020019060010190610720565b505050509050919050565b600080600090505b600160008573ffffffffffffffffffffffffffffffffffffffff1673ffffffffffffffffffffffffffffffffffffffff1681526020019081526020016000208054905081101561094e578260405160200161084a9190610dae565b60405160208183030381529060405280519060200120600160008673ffffffffffffffffffffffffffffffffffffffff1673ffffffffffffffffffffffffffffffffffffffff16815260200190815260200160002082815481106108aa57fe5b906000526020600020016040516020016108c49190610dc5565b60405160208183030381529060405280519060200120141561094157600160008573ffffffffffffffffffffffffffffffffffffffff1673ffffffffffffffffffffffffffffffffffffffff168152602001908152602001600020818154811061092a57fe5b90600052602060002001600061094091906109fa565b5b80806001019150506107ef565b506001905092915050565b828054600181600116156101000203166002900490600052602060002090601f016020900481019282601f1061099a57805160ff19168380011785556109c8565b828001600101855582156109c8579182015b828111156109c75782518255916020019190600101906109ac565b5b5090506109d59190610a42565b5090565b50805460008255906000526020600020908101906109f79190610a67565b50565b50805460018160011615610100020316600290046000825580601f10610a205750610a3f565b601f016020900490600052602060002090810190610a3e9190610a42565b5b50565b610a6491905b80821115610a60576000816000905550600101610a48565b5090565b90565b610a9091905b80821115610a8c5760008181610a8391906109fa565b50600101610a6d565b5090565b90565b600081359050610aa281610fb6565b92915050565b600082601f830112610ab957600080fd5b8135610acc610ac782610e68565b610e3b565b91508082526020830160208301858383011115610ae857600080fd5b610af3838284610f63565b50505092915050565b600060208284031215610b0e57600080fd5b6000610b1c84828501610a93565b91505092915050565b60008060408385031215610b3857600080fd5b6000610b4685828601610a93565b925050602083013567ffffffffffffffff811115610b6357600080fd5b610b6f85828601610aa8565b9150509250929050565b60008060408385031215610b8c57600080fd5b600083013567ffffffffffffffff811115610ba657600080fd5b610bb285828601610aa8565b925050602083013567ffffffffffffffff811115610bcf57600080fd5b610bdb85828601610aa8565b9150509250929050565b6000610bf18383610ce7565b905092915050565b6000610c0482610eb9565b610c0e8185610ee7565b935083602082028501610c2085610e94565b8060005b85811015610c5c5784840389528151610c3d8582610be5565b9450610c4883610eda565b925060208a01995050600181019050610c24565b50829750879550505050505092915050565b610c7781610f37565b82525050565b6000610c8882610ecf565b610c928185610f09565b9350610ca2818560208601610f72565b610cab81610fa5565b840191505092915050565b6000610cc182610ecf565b610ccb8185610f1a565b9350610cdb818560208601610f72565b80840191505092915050565b6000610cf282610ec4565b610cfc8185610ef8565b9350610d0c818560208601610f72565b610d1581610fa5565b840191505092915050565b600081546001811660008114610d3d5760018114610d6257610da6565b607f6002830416610d4e8187610f1a565b955060ff1983168652808601935050610da6565b60028204610d708187610f1a565b9550610d7b85610ea4565b60005b82811015610d9d57815481890152600182019150602081019050610d7e565b82880195505050505b505092915050565b6000610dba8284610cb6565b915081905092915050565b6000610dd18284610d20565b915081905092915050565b60006020820190508181036000830152610df68184610bf9565b905092915050565b6000602082019050610e136000830184610c6e565b92915050565b60006020820190508181036000830152610e338184610c7d565b905092915050565b6000604051905081810181811067ffffffffffffffff82111715610e5e57600080fd5b8060405250919050565b600067ffffffffffffffff821115610e7f57600080fd5b601f19601f8301169050602081019050919050565b6000819050602082019050919050565b60008190508160005260206000209050919050565b600081519050919050565b600081519050919050565b600081519050919050565b6000602082019050919050565b600082825260208201905092915050565b600082825260208201905092915050565b600082825260208201905092915050565b600081905092915050565b6000610f3082610f43565b9050919050565b60008115159050919050565b600073ffffffffffffffffffffffffffffffffffffffff82169050919050565b82818337600083830152505050565b60005b83811015610f90578082015181840152602081019050610f75565b83811115610f9f576000848401525b50505050565b6000601f19601f8301169050919050565b610fbf81610f25565b8114610fca57600080fd5b5056fea365627a7a7231582030c6d0899ffd96203095c578a8fa307ce6c125074ea7fad50c9fb453f84c84246c6578706572696d656e74616cf564736f6c63430005110040",
  "compiler": {
    "name": "solc",
    "version": "0.5.17+commit.d19bba13.Emscripten.clang",
    "optimizer": {
      "enabled": false,
      "runs": 200
    },
    "evmVersion": "petersburg"
  }
}